:020000040800F2
:1000000000500020053700080135000807350008BA
:100010000D350008133500081935000800000000F0
:100020000000000000000000000000001F35000874
:100030002B35000800000000373500084335000864
:100040004D3700084D3700084D3700084D37000880
:100050004D3700084D3700084D3700084D37000870
:100060004D3700084D3700084D3700084D37000860
:100070004D3700084D3700084D370008513500084E
:100080004D3700084D3700084D3700084D37000840
:100090004D3700084D3700084D3700084D37000830
:1000A0004D3700084D3700084D3700084D37000820
:1000B000653500084D3700084D3700084D370008FA
:1000C0004D3700084D3700084D3700084D37000800
:1000D0004D3700084D3700084D3700084D370008F0
:1000E0004D3700084D3700084D370008000000006C
:1000F0000000000000000000000000000000000000
:0C01000000000000000000005FF808F1A3
:1001100010B5054C237833B9044B13B10448AFF341
:1001200000800123237010BDE401002000000000C6
:100130003C93000808B5034B1BB103490348AFF3D8
:10014000008008BD00000000E80100203C9300088A
:10015000034613F8012B002AFBD1181A0138704707
:1001600081F0004102E000BF83F0004330B54FEA68
:1001700041044FEA430594EA050F08BF90EA020FD5
:100180001FBF54EA000C55EA020C7FEA645C7FEA68
:10019000655C00F0E2804FEA5454D4EB5555B8BF8B
:1001A0006D420CDD2C4480EA020281EA030382EAFC
:1001B000000083EA010180EA020281EA0303362D8E
:1001C00088BF30BD11F0004F4FEA01314FF4801C61
:1001D0004CEA113102D0404261EB410113F0004F73
:1001E0004FEA03334CEA133302D0524263EB43032A
:1001F00094EA050F00F0A780A4F10104D5F1200EC8
:100200000DDB02FA0EFC22FA05F2801841F1000122
:1002100003FA0EF2801843FA05F359410EE0A5F1F6
:1002200020050EF1200E012A03FA0EFC28BF4CF027
:10023000020C43FA05F3C01851EBE37101F00045DD
:1002400007D54FF0000EDCF1000C7EEB00006EEBEA
:100250000101B1F5801F1BD3B1F5001F0CD3490874
:100260005FEA30004FEA3C0C04F101044FEA4452CB
:1002700012F5800F80F09A80BCF1004F08BF5FEA52
:10028000500C50F1000041EB045141EA050130BD32
:100290005FEA4C0C404141EB0101013C28BFB1F544
:1002A000801FE9D291F0000F04BF01460020B1FA8F
:1002B00081F308BF2033A3F10B03B3F120020CDA62
:1002C0000C3208DD02F1140CC2F10C0201FA0CF040
:1002D00021FA02F10CE002F11402D8BFC2F1200CA5
:1002E00001FA02F120FA0CFCDCBF41EA0C0190405B
:1002F000E41AA2BF01EB0451294330BD6FEA0404A4
:100300001F3C1CDA0C340EDC04F11404C4F120028E
:1003100020FA04F001FA02F340EA030021FA04F3A0
:1003200045EA030130BDC4F10C04C4F1200220FAF7
:1003300002F001FA04F340EA0300294630BD21FA35
:1003400004F0294630BD94F0000F83F4801306BFFB
:1003500081F480110134013D4EE77FEA645C18BFEF
:100360007FEA655C29D094EA050F08BF90EA020F86
:1003700005D054EA000C04BF1946104630BD91EA7E
:10038000030F1EBF0021002030BD5FEA545C05D181
:100390004000494128BF41F0004130BD14F58004C0
:1003A0003CBF01F5801130BD01F0004545F0FE4134
:1003B00041F470014FF0000030BD7FEA645C1ABF69
:1003C000194610467FEA655C1CBF0B46024650EAA0
:1003D000013406BF52EA033591EA030F41F40021CC
:1003E00030BD00BF90F0000F04BF0021704730B552
:1003F0004FF4806404F132044FF000054FF0000127
:1004000050E700BF90F0000F04BF0021704730B5E7
:100410004FF4806404F1320410F0004548BF4042BC
:100420004FF000013EE700BF42004FEAE2014FEA11
:1004300031014FEA02701FBF12F07F4393F07F4FEC
:1004400081F06051704732F07F4208BF704793F0EF
:100450007F4F04BF41F40021704730B54FF4607402
:1004600001F0004521F000411CE700BF50EA010205
:1004700008BF704730B54FF000050AE050EA0102AE
:1004800008BF704730B511F0004502D5404261EB1E
:1004900041014FF4806404F132045FEA915C3FF45F
:1004A000D8AE4FF003025FEADC0C18BF03325FEAFC
:1004B000DC0C18BF033202EBDC02C2F1200300FAAD
:1004C00003FC20FA02F001FA03FE40EA0E0021FAD2
:1004D00002F11444BDE600BF70B54FF0FF0C4CF4C0
:1004E000E06C1CEA11541DBF1CEA135594EA0C0F72
:1004F00095EA0C0F00F0DEF82C4481EA030621EAAD
:100500004C5123EA4C5350EA013518BF52EA0335E7
:1005100041F4801143F4801338D0A0FB02CE4FF099
:100520000005E1FB02E506F00042E0FB03E54FF0C9
:100530000006E1FB03569CF0000F18BF4EF0010EC1
:10054000A4F1FF04B6F5007F64F5407404D25FEABD
:100550004E0E6D4146EB060642EAC62141EA555170
:100560004FEAC52040EA5E504FEACE2EB4F1FD0CB2
:1005700088BFBCF5E06F1ED8BEF1004F08BF5FEA30
:10058000500E50F1000041EB045170BD06F00046E2
:1005900046EA010140EA020081EA0301B4EB5C048F
:1005A000C2BFD4EB0C0541EA045170BD41F4801187
:1005B0004FF0000E013C00F3AB8014F1360FDEBFAC
:1005C000002001F0004170BDC4F10004203C35DA88
:1005D0000C341BDC04F11404C4F1200500FA05F30B
:1005E00020FA04F001FA05F240EA020001F00042AC
:1005F00021F0004110EBD37021FA04F642EB060122
:100600005EEA430E08BF20EAD37070BDC4F10C044B
:10061000C4F1200500FA04F320FA05F001FA04F20F
:1006200040EA020001F0004110EBD37041F10001FB
:100630005EEA430E08BF20EAD37070BDC4F1200506
:1006400000FA05F24EEA020E20FA04F301FA05F26E
:1006500043EA020321FA04F001F0004121FA04F216
:1006600020EA020000EBD3705EEA430E08BF20EAE6
:10067000D37070BD94F0000F0FD101F00046400020
:1006800041EB010111F4801F08BF013CF7D041EAA2
:10069000060195F0000F18BF704703F000465200A6
:1006A00043EB030313F4801F08BF013DF7D043EA77
:1006B0000603704794EA0C0F0CEA135518BF95EA2D
:1006C0000C0F0CD050EA410618BF52EA4306D1D1B4
:1006D00081EA030101F000414FF0000070BD50EAD3
:1006E000410606BF1046194652EA430619D094EA5D
:1006F0000C0F02D150EA013613D195EA0C0F05D147
:1007000052EA03361CBF104619460AD181EA03019A
:1007100001F0004141F0FE4141F470014FF0000052
:1007200070BD41F0FE4141F4780170BD70B54FF0ED
:10073000FF0C4CF4E06C1CEA11541DBF1CEA13556D
:1007400094EA0C0F95EA0C0F00F0A7F8A4EB05044F
:1007500081EA030E52EA03354FEA013100F0888046
:100760004FEA03334FF0805545EA131343EA12630F
:100770004FEA022245EA111545EA10654FEA0026C4
:100780000EF000419D4208BF964244F1FD0404F57D
:10079000407402D25B084FEA3202B61A65EB0305D9
:1007A0005B084FEA32024FF480104FF4002CB6EB96
:1007B000020E75EB030E22BFB61A754640EA0C0016
:1007C0005B084FEA3202B6EB020E75EB030E22BF56
:1007D000B61A754640EA5C005B084FEA3202B6EB97
:1007E000020E75EB030E22BFB61A754640EA9C0056
:1007F0005B084FEA3202B6EB020E75EB030E22BF26
:10080000B61A754640EADC0055EA060E18D04FEAE3
:10081000051545EA16754FEA06164FEAC30343EA83
:1008200052734FEAC2025FEA1C1CC0D111F4801F50
:100830000BD141EA00014FF000004FF0004CB6E749
:1008400011F4801F04BF01430020B4F1FD0C88BFE8
:10085000BCF5E06F3FF6AFAEB5EB030C04BFB6EBF3
:10086000020C5FEA500C50F1000041EB045170BDE6
:100870000EF0004E4EEA113114EB5C04C2BFD4EB13
:100880000C0541EA045170BD41F480114FF0000E97
:10089000013C90E645EA060E8DE60CEA135594EA13
:1008A0000C0F08BF95EA0C0F3FF43BAF94EA0C0F16
:1008B0000AD150EA01347FF434AF95EA0C0F7FF48B
:1008C00025AF104619462CE795EA0C0F06D152EADF
:1008D00003353FF4FDAE1046194622E750EA4106C3
:1008E00018BF52EA43067FF4C5AE50EA41047FF4D4
:1008F0000DAF52EA43057FF4EBAE12E74FF0FF3C39
:1009000006E000BF4FF0010C02E000BF4FF0010C09
:100910004DF804CD4FEA410C7FEA6C5C4FEA430C82
:1009200018BF7FEA6C5C1BD001B050EA410C0CBFD1
:1009300052EA430C91EA030F02BF90EA020F002033
:10094000704710F1000F91EA030F58BF994208BF9A
:1009500090422CBFD8176FEAE37040F00100704757
:100960004FEA410C7FEA6C5C02D150EA013C07D1AE
:100970004FEA430C7FEA6C5CD6D152EA033CD3D0F9
:100980005DF8040B704700BF8446104662468C46F3
:100990001946634600E000BF01B5FFF7B7FF002826
:1009A00048BF10F1000F01BD4DF808EDFFF7F4FF4F
:1009B0000CBF012000205DF808FB00BF4DF808EDDA
:1009C000FFF7EAFF34BF012000205DF808FB00BFFD
:1009D0004DF808EDFFF7E0FF94BF012000205DF81F
:1009E00008FB00BF4DF808EDFFF7CEFF94BF0120D4
:1009F00000205DF808FB00BF4DF808EDFFF7C4FFCD
:100A000034BF012000205DF808FB00BF4FEA410C15
:100A10007FEA6C5C02D150EA013C0AD14FEA430CF8
:100A20007FEA6C5C02D152EA033C02D14FF0000035
:100A300070474FF0010070474FEA410212F5001273
:100A400015D211D56FF47873B3EB625212D94FEA15
:100A5000C12343F0004343EA505311F0004F23FAFF
:100A600002F018BF404270474FF00000704750EA54
:100A7000013005D111F0004008BF6FF00040704711
:100A80004FF00000704700BF4FEA4102B2F1E0436F
:100A900024BFB3F5001CDCF1FE5C0DD901F0004C65
:100AA0004FEAC0024CEA5070B2F1004F40EB8300B5
:100AB00008BF20F00100704711F0804F21D113F1E1
:100AC0003872BCBF01F00040704741F480114FEA1A
:100AD0005252C2F11802C2F1200C10FA0CF320FAA3
:100AE00002F018BF40F001004FEAC1234FEAD323C0
:100AF00003FA0CFC40EA0C0023FA02F34FEA43032A
:100B0000CCE77FEA625307D150EA01331EBF4FF0B2
:100B1000FE4040F44000704701F0004040F0FE40CD
:100B200040F40000704700BF7BB972B90029BEBF16
:100B300000204FF0004106E008BF00281CBF6FF006
:100B400000414FF0FF3000F0A9B9ADF1080C6DE99C
:100B500004CE002909DB002B1ADB00F035F8DDF8A4
:100B600004E0DDE9022304B07047404261EB41013B
:100B7000002B1BDB00F028F8DDF804E0DDE90223A0
:100B800004B0404261EB4101524263EB43037047C2
:100B9000524263EB430300F017F8DDF804E0DDE9AF
:100BA000022304B0404261EB41017047524263EBC3
:100BB000430300F009F8DDF804E0DDE9022304B0A6
:100BC000524263EB430370472DE9F047089E0D4600
:100BD00004468846002B4DD18A42944668D9B2FA21
:100BE00082F252B101FA02F3C2F1200120FA01F1BE
:100BF0000CFA02FC41EA030894404FEA1C41B8FB9E
:100C0000F1F71FFA8CFE01FB178807FB0EF0230C8F
:100C100043EA084398420AD91CEB030307F1FF3566
:100C200080F01E81984240F21B81023F63441B1AF0
:100C3000B3FBF1F001FB103300FB0EFEA4B244EA5B
:100C40000344A6450AD91CEB040400F1FF3380F0ED
:100C50000981A64540F20681644402380021A4EBD4
:100C60000E0440EA07401EB10023D440C6E9004309
:100C7000BDE8F0878B4208D9002E00F0EE800021FD
:100C8000C6E900050846BDE8F087B3FA83F10029FC
:100C90004AD1AB4202D3824200F2FC80841A65EB57
:100CA000030301209846002EE2D0C6E90048DFE7A2
:100CB00002B9FFDEB2FA82F2002A40F09180A1EB85
:100CC0000C0001214FEA1C471FFA8CFEB0FBF7F322
:100CD00007FB1300250C45EA00450EFB03F0A84274
:100CE00008D91CEB050503F1FF3802D2A84200F237
:100CF000CE8043462D1AB5FBF7F007FB10550EFBCF
:100D000000FEA4B244EA0544A64508D91CEB04043D
:100D100000F1FF3502D2A64500F2B6802846A4EBCA
:100D20000E0440EA03409EE7C1F120078B4022FAFF
:100D300007FC4CEA030C25FA07FA4FEA1C49BAFBF8
:100D4000F9F820FA07F309FB18AA8D401FFA8CFE68
:100D50001D4300FA01F308FB0EF02C0C44EA0A4490
:100D6000A04202FA01F20BD91CEB040408F1FF3A8D
:100D700080F08880A04240F28580A8F10208644497
:100D8000241AB4FBF9F009FB104400FB0EFEADB2CF
:100D900045EA0444A64508D91CEB040400F1FF35DC
:100DA0006CD2A6456AD90238644440EA0840A0FBE8
:100DB0000295A4EB0E04AC42C846AE4656D353D0BF
:100DC000002E69D0B3EB080264EB0E0422FA01F3A3
:100DD00004FA07F71F43CC40C6E90074002147E737
:100DE0000CFA02FCC2F1200125FA01F34FEA1C477C
:100DF00020FA01F195400D43B3FBF7F107FB1133E6
:100E00001FFA8CFE280C40EA034001FB0EF38342DC
:100E100004FA02F408D91CEB000001F1FF382FD2CC
:100E200083422DD902396044C01AB0FBF7F307FBA7
:100E30001300ADB245EA004503FB0EF0A84208D905
:100E40001CEB050503F1FF3816D2A84214D9023B6A
:100E50006544281A43EA014138E73146304607E73E
:100E60002F46E4E61846F9E64B45A9D2B9EB02084D
:100E700065EB0C0E0138A3E74346EAE7284694E702
:100E80004146D1E7D0467BE76444023847E7023B5E
:100E900065442FE7084606E73146E9E6704700BF9C
:100EA00080B584B000AF78600523BB7300237B73EB
:100EB000786801F0B8FA0346FB7397F90F30002BFE
:100EC00033D128E007F10D017B680122D02000F02A
:100ED00032F80346FB7397F90F30002B14D17B7B5C
:100EE000602B11D17A7B7B681A70786800F078F9F2
:100EF0000346FB7397F90F30002B10D1786801F08F
:100F00000CF90346FB730AE07B68DB680120984715
:100F1000BB7B013BBB73BB7B002BD3D100E000BF8D
:100F2000BB7B002B01D1FE23FB7397F90F301846D2
:100F30001037BD4680BD90B587B000AFB9607B600B
:100F40000346FB731346BB81786801F06CFA0346D5
:100F5000FB7597F91730002B17D17B689B78012B15
:100F600003D0FB7B63F07F03FB737B685C687B686B
:100F70005878BB89F97BBA68A0470346FB7597F997
:100F80001730002B01D0FC23FB7597F9173018465A
:100F90001C37BD4690BD90B58DB000AFF860B9600C
:100FA0003B601346FB71FB790A2B01D90A23FB71C5
:100FB000386801F038FA034687F82F3097F92F3058
:100FC000002B56D1FB68002B53D0BB68002B50D0B0
:100FD000FB79002B49D0BB681B783B753B689B783D
:100FE000012B1AD0002387F82B3011E097F82B3013
:100FF000FA6813441A7897F82B30F9680B4402F01A
:101000007F02D2B21A7097F82B30013387F82B3059
:1010100097F82B20FB799A42E8D3FB79012B0DD965
:10102000FB7907F11401BA68F86801F0BBF8FB79A5
:101030009BB25B009BB2013BBB8501E0FB79BB85AA
:101040003B689C683B685878FB681978BB8D07F152
:101050001402A047034687F82F3097F92F30002B52
:101060000BD0FC2387F82F3007E0FD2387F82F30C3
:1010700003E0FF2387F82F3000E000BF97F92F30FF
:1010800018463437BD4690BD80B584B000AF0346E6
:101090003960FB71386801F0C6F90346FB7397F9B4
:1010A0000F30002B3FD107F10E033968184600F0CE
:1010B00074F80346FB7397F90F30002B07D1BB7B05
:1010C000002B04D0386800F030FB0346FB7397F91F
:1010D0000F30002B27D1FB791946072001F088F942
:1010E0000346002B09D03B6803F13801FB793A68CD
:1010F000184600F071F90346FB7397F90F30002B87
:1011000011D1FB791946182001F072F90346002B22
:1011100009D03B6803F13801FB793A68184600F0C2
:10112000F8F90346FB7397F90F3018461037BD46A0
:1011300080BD80B584B000AF03463960FB7138686C
:1011400001F071F90346FB7397F90F30002B1ED1A4
:1011500007F10E033968184600F01FF80346FB73C9
:1011600097F90F30002B07D1BB7B002B04D03868D8
:1011700000F0DBFA0346FB7397F90F30002B06D122
:10118000FB793968184600F09DFA0346FB7397F91E
:101190000F3018461037BD4680BD80B584B000AF13
:1011A00078603960386801F03EF90346FB7397F9BF
:1011B0000F30002B0ED13B6801227968F420FFF735
:1011C000BAFE0346FB737B681B7803F00303DAB2B5
:1011D0007B681A7097F90F3018461037BD4680BDEE
:1011E00080B584B000AF7860E023BB73B6237B7317
:1011F000786801F018F90346FB7397F90F30002B5C
:101200000DD107F10D0107F10E007B680122FFF7F8
:10121000C2FE0346FB737B68DB680220984797F9A0
:101220000F3018461037BD4680BD80B58AB000AF7C
:101230000346B9607A60FB730023FB6100233B62C5
:1012400007F1100300221A605A609A60786801F072
:10125000EAF8034687F8273097F92730002B24D186
:10126000BB68002B21D007F11C017B680822F72006
:10127000FFF761FE034687F8273097F92730002BE8
:1012800016D107F1100207F11C031146184600F0B1
:1012900015F87B68103307F11001F87BBA6800F08D
:1012A00052F8034687F8273002E0FF2387F82730FB
:1012B00097F9273018462837BD4680BD80B487B0DF
:1012C00000AF786039607B681B781B037B617B68AB
:1012D00001331B781B013B617B6802331B781B09C0
:1012E000DBB2FB607A693B691A43FB681A433B68CF
:1012F0001A607B6803331B781B037B617B680433B4
:101300001B781B013B617B6805331B781B09DBB233
:10131000FB607A693B691A43FB681A433B685A6071
:101320007B6806331B781B023B617B6807331B78A5
:101330007B617A693B691A433B689A6000BF1C373E
:10134000BD4680BC704780B586B000AFB9607A609A
:101350003B600346FB730023FB75BB68002B33D057
:101360007B68002B30D03B68002B2DD07B6800229F
:101370005A607B6800221A607B6800229A60FB7BBF
:1013800003F00703002B06D03968B86800F01AFA9A
:1013900002467B685A60FB7B03F00103002B06D0FA
:1013A0003968B86800F06EFA02467B681A60FB7B09
:1013B00003F00403002B09D03968B86800F002FE7E
:1013C00002467B689A6001E0FF23FB7597F91730AE
:1013D00018461837BD4680BD80B586B000AF0346BD
:1013E000B9607A60FB730123FB75FB7B03F0040398
:1013F000002B05D07968B86800F015F80346FB7536
:10140000FB7B03F00303002B07D0FB7B7A68B968F2
:10141000184600F042F80346FB7597F91730184656
:101420001837BD4680BD80B584B000AF78603960A4
:10143000F2233B737B689B7803F00703DBB2BB733B
:1014400007F10E0107F10C003B680122FFF7A3FD35
:101450000346FB7397F90F30002B18D1F4233B732D
:10146000387B07F10D013B680122FFF764FD03465D
:10147000FB7397F90F30002B09D107F10D0107F12C
:101480000C003B680122FFF786FD0346FB7397F9CA
:101490000F3018461037BD4680BD80B586B000AF0E
:1014A0000346B9607A60FB73F423BB75B87D07F11E
:1014B00015017B680122FFF73EFD0346FB7597F996
:1014C0001730002B1FD1FB7B03F00103002B05D04D
:1014D00007F11503B968184600F08CF8FB7B03F0A0
:1014E0000203002B05D007F11503B968184600F078
:1014F0009DF807F1150107F116007B680122FFF73F
:101500004AFD0346FB7597F9173018461837BD4654
:1015100080BD80B586B000AF0346B9607A60FB73CA
:10152000F523BB75B87D07F115017B680122FFF734
:1015300002FD0346FB7597F91730002B1FD1FB7B8B
:1015400003F00803002B05D007F11503B96818460E
:1015500000F01BF8FB7B03F01003002B05D007F114
:101560001503B968184600F02CF807F1150107F1CA
:1015700016007B680122FFF70EFD0346FB7597F905
:10158000173018461837BD4680BD80B483B000AF11
:10159000786039607B681B785BB223F01C035AB219
:1015A0003B68DB789B005BB203F01C035BB2134328
:1015B0005BB2DAB27B681A7000BF0C37BD4680BCE4
:1015C000704780B483B000AF786039607B681B7867
:1015D0005BB203F01F035AB23B681B795B015BB23D
:1015E00013435BB2DAB27B681A7000BF0C37BD469A
:1015F00080BC704780B483B000AF786039607B688E
:101600001B785BB223F01C035AB23B681B789B002B
:101610005BB203F01C035BB213435BB2DAB27B68CC
:101620001A7000BF0C37BD4680BC704780B483B0D1
:1016300000AF786039607B681B785BB203F01F03F2
:101640005AB23B685B785B015BB213435BB2DAB2C0
:101650007B681A7000BF0C37BD4680BC704780B4F1
:1016600083B000AF786039607B681B7803F00703B4
:10167000DAB23B689A707B6802331B789B10DBB24E
:1016800003F00703DAB23B681A707B6802331B78F9
:101690005B09DAB23B685A707B6803331B789B1096
:1016A000DBB203F00703DAB23B68DA707B6803331E
:1016B0001B785B09DAB23B681A7100BF0C37BD4674
:1016C00080BC704780B584B000AF03463960FB71C1
:1016D000F423BB73B87B07F10D013B680122FFF7D0
:1016E0002AFC0346FB7397F90F30002B17D17B7B45
:1016F0005BB223F003035AB297F9073003F00303F8
:101700005BB213435BB2DBB27B7307F10D0107F1F0
:101710000E003B680122FFF73EFC0346FB7397F97E
:101720000F3018461037BD4680BD80B586B000AF7B
:10173000786007F110017B680422F220FFF7FBFBC1
:101740000346FB7597F91730002B18D107F10802F3
:1017500007F1100311461846FFF781FF7868FFF77D
:101760003FFD0346FB7597F91730002B07D107F1B2
:1017700008037968184600F008F80346FB7597F9E6
:10178000173018461837BD4680BD80B584B000AF0D
:10179000786039603A6879681F20FFF71DFE0346BC
:1017A000FB7397F90F30002B06D13A6879681F2038
:1017B000FFF7AFFE0346FB7397F90F30184610375B
:1017C000BD4680BD80B489B000AF786039602C4BD5
:1017D000BB6142F234137B617B685B68DB083A686B
:1017E000128852009B1A3B613B68B3F902301A46DB
:1017F0003B6902FB03F3002B01DA03F2FF73DB12F8
:101800003B617B685B681B093A6812889B1AFB6026
:10181000FB6803FB03F3002B01DA03F6FF731B13D2
:101820001A463B68B3F9043002FB03F3002B02DADB
:1018300003F57F533F339B13FB603A69FB681A44FF
:101840003B685A623B685A6A13469B0013448033D4
:10185000002B00DAFF331B12FB61FA69BB699A4265
:1018600002DABB69FB6105E0FA697B699A4201DD36
:101870007B69FB61FB6918462437BD4680BC704715
:1018800060F0FFFF2DE9B04FEAB000AFC7F8740178
:10189000C7F87011BE4BC7F8A031BE4BC7F89C31DA
:1018A000D7F870315B6ADA1798469146B8F5FA3A7C
:1018B00049F1FF3BC7E964ABD7F89421D7F89031E1
:1018C00003FB02F1D7F89421D7F8903102FB03F320
:1018D000CA18D7F89031A3FB034553191D46D7F812
:1018E0007031B3F910301BB2DA17C7F82031C7F8DE
:1018F0002421D7E94801034603FB05F20B4604FB0C
:1019000003F313440246A4FB0221C7F82C11C7F8C5
:101910002821D7F82C211344C7F82C31D7E94A34B1
:10192000C7E96234C7E96234D7F87031B3F90E30D1
:101930001BB2DA17C7F81831C7F81C21D7F8903155
:10194000D7E946452A4602FB03F2D7F894312146EF
:1019500001FB03F31A44D7F890312146A3FB013170
:10196000C7F86C11C7F86831D7F86C31D318C7F8CD
:101970006C314FF000004FF00001D7E95A452B467B
:101980005904224641EAD23123465804D7E962235A
:101990001418C7F8A8404B41C7F8AC30D7E92A342F
:1019A000C7E96234D7F87031B3F90C301BB2DA17DB
:1019B000C7F81031C7F814214FF000004FF00001B4
:1019C000D7F81031D9000020D7E962231418C7F8DE
:1019D000A0404B41C7F8A430D7E92834C7E96234A6
:1019E000D7F89421D7F8903103FB02F1D7F894216E
:1019F000D7F8903102FB03F3CA18D7F89031A3FB54
:101A00000331C7F86411C7F86031D7F86431D318CF
:101A1000C7F86431D7F87031B3F90A301BB2DA175E
:101A2000C7F80831C7F80C21D7E958342246D7E95E
:101A30004289414601FB02F24D46184621460346C3
:101A400003FB05F3134402464146A2FB0121C7F8FC
:101A50005C11C7F85821D7F85C211344C7F85C31F2
:101A6000D7E95623002B09DA12F1FF01C7F89810C5
:101A700043F10003C7F89C30D7E926234FF000005C
:101A80004FF00001100A40EA03601912D7F87031D4
:101A9000B3F908301BB2DA17C7F80031C7F80421D0
:101AA000D7F89031D7E940894A4602FB03F2D7F8CC
:101AB0009431444604FB03F31A44D7F8903144466A
:101AC000A3FB0434C7F85441C7F85031D7F8543158
:101AD000D318C7F854314FF000024FF00003D7E994
:101AE00054894C462303C44643EA1C53444622030C
:101AF0008418C7F8904041EB0303C7F89430D7E946
:101B00002434C7E964344FF000024FF40043C7E9BE
:101B10006023D7E96001D7E964238418C7F8F84047
:101B200041EB0303C7F8FC30D7F87031DB889BB278
:101B30000022C7F8F030C7F8F420D7E93E34224637
:101B4000D7E93C89414601FB02F24D461846214641
:101B5000034603FB05F3134402464146A2FB012161
:101B6000C7F84C11C7F84821D7F84C211344C7F8DF
:101B70004C31D7E95223002B0EDA511EC7F88810DA
:101B800043F10103C7F88C30D7E9222304E000BFFA
:101B9000C0C62D00C0D8A7004FF000004FF00001D4
:101BA0005810D917C7E96401D7E96423134300F03B
:101BB000FA81D7F874311B68C3F580130022C7F887
:101BC0008030C7F88420D7E92034C7E95E34D7E9EC
:101BD0005E234FF000004FF00001D90741EA5201A7
:101BE000D007D7E96223841AC7F8E84061EB030302
:101BF000C7F8EC30D7E93A4522462B469118B96729
:101C00005B41FB67D7E91E232146511839672946F6
:101C10004B417B674FF000024FF00003D7E91C896E
:101C200049468B01414643EA916341468A01414658
:101C30008918B966494643EB0101F9664FF0000285
:101C40004FF00003D7E91A8949468B00C44643EA9E
:101C50009C7341468A0010461946034622469B184B
:101C60003B660B462A4642EB03037B664FF00002BD
:101C70004FF00003D7E9188949468B00C44643EA70
:101C80009C7341468A0010461946034622469B181B
:101C9000C7F8E0302B460A4642EB0303C7F8E430AE
:101CA000D7E96423D7E93801FEF73EFF02460B4629
:101CB000C7E95E23D7F87031B3F916301BB2DA17D3
:101CC000C7F8D830C7F8DC20D7E95E23002B08DA44
:101CD00041F6FF715118B96543F10003FB65D7E97F
:101CE00016234FF000004FF00001500B40EAC340B4
:101CF000591302460B46D7E93645294602FB01F047
:101D0000214601FB03F101442046A0FB0232C7F843
:101D10004421C7F84031D7F84431CB18C7F84431D3
:101D2000D7E95E23002B08DA41F6FF7151183965B7
:101D300043F100037B65D7E914234FF000004FF017
:101D40000001500B40EAC340591302460B46D7E945
:101D50005045294602FB01F0214601FB03F10144F5
:101D60002046A0FB0232C7F83C21C7F83831D7F82B
:101D70003C31CB18C7F83C31D7E94E23002B08DAA9
:101D80006FF07E415118B96443F10003FB64D7E959
:101D900012234FF000004FF00001500E40EAC31034
:101DA0005916C7E96401D7F87031B3F914301BB282
:101DB000DA17C7F8D030C7F8D420D7F87831D7E988
:101DC00034452A4602FB03F2D7F87C31214601FB59
:101DD00003F31A44D7F878312146A3FB0131C7F841
:101DE0003411C7F83031D7F83431D318C7F834314B
:101DF000D7E94C23002B07DA71495118396443F1B4
:101E000000037B64D7E910234FF000004FF000017E
:101E1000D00C40EA4330D914C7E96201D7E95E012A
:101E2000D7E964238418C7F8C84041EB0303C7F817
:101E3000CC30D7E96223D7E9324521468918C7F863
:101E4000C010294643EB0101C7F8C410D7E930237D
:101E5000002B07DA12F1FF01B96343F10003FB63C2
:101E6000D7E90E234FF000004FF00001100A40EABE
:101E700003601912D7F87031B3F912301BB2DA17B8
:101E8000C7F8B830C7F8BC204FF000024FF000038D
:101E9000D7E92E894C462301C44643EA1C734446C5
:101EA000220184183C6341EB03037B63D7E90C34C4
:101EB000C7E95E34D7E95E23D90F0020B962F86222
:101EC000D7E90A45214689183962294643EB0101C1
:101ED00079624FF000024FF00003D7E90845214630
:101EE0004A08204629460C4642EAC4724B10104666
:101EF000194602460B469418BC615B41FB61D7E969
:101F0000062314183C614B417B614FF000024FF0F7
:101F10000003D7E904894C466301444643EAD4638D
:101F2000444662014446A418BC604C4643EB04049A
:101F3000FC60D7E9024523461B18C7F8B0302B4692
:101F400041EB0303C7F8B430D7E92C23002B07DAA1
:101F500012F17F01396043F100037B60D7E9002370
:101F60004FF000004FF00001D00940EA4360D91162
:101F700002460B461346C7F8A431D7F8A421D7F878
:101F8000A0319A4204D2D7F8A031C7F8A4310EE0AC
:101F9000D7F8A421D7F89C319A4208D9D7F89C31B8
:101FA000C7F8A43103E0D7F8A031C7F8A431D7F8B7
:101FB000A431184607F5D477BD46BDE8B08F00BF01
:101FC000FFFF070080B48BB000AF786039604FF43A
:101FD000C8333B623B685B6AA3F59633FB617B6861
:101FE0009B689B03BB613B68B3F91E301B057B619B
:101FF0003B68B3F920301A46FB6902FB03F33B61EF
:10200000BA697B69D21A3B69D31A03F58043002B66
:1020100002DA03F5FF437F33DB13FB603B6893F980
:1020200022301A46FB6902FB03F3002B01DA03F2AC
:10203000FF339B12BB613B681B7F1A46FB6902FBA7
:1020400003F3002B01DA03F2FF73DB127B617B6980
:1020500003F50043BA6902FB03F3002B01DA03F234
:10206000FF339B1203F500133B613B68B3F91A3051
:102070001A463B6902FB03F303F50053002B02DA17
:1020800003F57F533F339B13BB61FB68BA6902FBC7
:1020900003F37B617B69002B02DA03F5FF437F3397
:1020A000DB131A467B69002B02DA03F5FF437F330B
:1020B000DB1302FB03F3002B00DA7F33DB113B6100
:1020C0003B681B7E1A463B6902FB03F3002B00DAD8
:1020D0000F331B115B421A467B691344FB60FB689C
:1020E00023EAE373FB60FB68B3F1C85FA8BF4FF05E
:1020F000C853FB60FB68002B01DA03F6FF731B1368
:102100007B627A6A3B6A9A4201D93B6A7B627B6A4C
:1021100018462C37BD4680BC704780B58AB000AFEA
:102120007860882387F826300023FB6007F11003CE
:1021300000221A605A609A60DA601A619A8207F186
:102140000C0197F826007B681A22FEF7F4FE03467E
:1021500087F8273097F92730002B1DD107F10C03A2
:102160007968184600F049F8E12387F8263007F12E
:102170000C0197F826007B680722FEF7DCFE034679
:1021800087F8273097F92730002B05D107F10C038A
:102190007968184600F0DFF897F927301846283795
:1021A000BD4680BD80B487B000AFF860B9607A608A
:1021B000FB700123FB7516E0FB7DFA681A44FB7D7A
:1021C0005B00013BB9680B4412781A70FB7D7A689A
:1021D0001A44FB7D5B001946BB680B4412781A70E9
:1021E000FB7D0133FB75FA7DFB789A42E4D300BF97
:1021F00000BF1C37BD4680BC704780B485B000AFBF
:10220000786039603B681033FB607B6801331B7872
:102210001B021AB27B681B781BB213431BB29AB223
:10222000FB681A807B6803331B781B021AB27B6839
:1022300002331B781BB213431AB2FB685A807B68C7
:1022400005331B781B021AB27B6804331B781BB260
:1022500013431AB2FB689A807B6807331B781B0212
:102260001AB27B6806331B781BB213431BB29AB2B7
:10227000FB68DA807B6809331B781B021AB27B6823
:1022800008331B781BB213431AB2FB681A817B68B0
:102290000B331B781B021AB27B680A331B781BB204
:1022A00013431AB2FB685A817B680D331B781B02FB
:1022B0001AB27B680C331B781BB213431AB2FB684B
:1022C0009A817B680F331B781B021AB27B680E332E
:1022D0001B781BB213431AB2FB68DA817B68113397
:1022E0001B781B021AB27B6810331B781BB2134396
:1022F0001AB2FB681A827B6813331B781B021AB26E
:102300007B6812331B781BB213431AB2FB685A82E4
:102310007B6815331B781B021AB27B6814331B7859
:102320001BB213431AB2FB689A827B6817331B787F
:102330001B021AB27B6816331B781BB213431AB206
:10234000FB68DA827B685A7EFB681A7600BF143716
:10235000BD4680BC704780B487B000AF78603960FC
:102360003B6810337B617B6801331B781B021AB218
:102370007B681B781BB213431AB27B695A837B6854
:102380009A787B691A777B6803331B785BB29BB2C0
:102390001B019BB27B827B6804331B781BB203F06A
:1023A0000F033B827A8A3B8A13431AB27B69DA8332
:1023B0007B6805331B785BB29BB21B019BB2FB8130
:1023C0007B6804331B781B09DBB2BB81FA89BB89AC
:1023D00013431AB27B691A847B6806331B785AB29E
:1023E0007B6983F8222000BF1C37BD4680BC704744
:1023F00080B485B000AF03460A46FB711346BB713B
:102400000023FB73FA79BB791340DBB2002B02D0B7
:102410000123FB7301E00023FB73FB7B1846143799
:10242000BD4680BC704780B485B000AF78607B68E3
:10243000002B0BD07B685B68002B07D07B689B6808
:10244000002B03D07B68DB68002B02D1FF23FB73DA
:1024500001E00023FB7397F90F3018461437BD468F
:1024600080BC704780B584B002AF3A601A4603461C
:10247000FB710B46BB711346BB80FB799BB25B00C3
:1024800099B2BA1D0A2300930123114801F0A4FF59
:102490000346002B02D04FF0FF3314E0FB795B00C2
:1024A0001BB243F001031BB299B2BB880A2200920F
:1024B0003A68074802F08EF80346002B02D04FF02E
:1024C000FF3300E0002318460837BD4680BD00BF3B
:1024D0000002002080B582B000AF7860786801F01B
:1024E00099F900BF0837BD4680BD000080B586B0B1
:1024F00002AF3A601A460346FB710B46BB711346A6
:10250000BB80BB880133184604F030F80346FB60FB
:1025100097F90620FB681A70FB680133BA8839689E
:10252000184604F033F8FB799BB25B0099B2BB8884
:1025300001339BB24FF0FF320092FA68084801F075
:102540004BFF0346002B02D04FF0FF3303E0F86847
:1025500004F014F8002318461037BD4680BD00BFB4
:102560000002002080B485B000AF78600023FB60DB
:1025700008E0FB689B007A68134400221A60FB683D
:102580000133FB60FB68632BF3D900BF00BF143736
:10259000BD4680BC704780B487B000AF0346B960C9
:1025A0007A60FB8100237B613DE07A69BB689A42D7
:1025B0001BD27B699B007A6813441A68FB891B0451
:1025C000DB4318467B699B0079680B4402401A6024
:1025D0007B699B007A6813441968FA897B699B00C0
:1025E000786803440A431A601AE07B699B007A68A2
:1025F00013441A68FB89DB4318467B699B007968A2
:102600000B4402401A607B699B007A681344196886
:10261000FB891A047B699B00786803440A431A60AB
:102620007B6901337B617B69632BBED900BF00BF2F
:102630001C37BD4680BC704780B500AF01F088F8FC
:1026400000F030F900F0B0FA00F090FA00F070F904
:1026500000F038FA00F060FA00F098F900F0E6F9BE
:1026600000F03AFB784B76225A70774B01229A7031
:10267000754B764A5A60744B754A9A60724B754A2C
:10268000DA607148FEF70CFC03461A46724B1A706A
:102690006D4B012283F83A206B4B052283F83820DA
:1026A000694B022283F83920674B042283F83B20D0
:1026B00065490F20FEF7E8FC03461A46664B1A7080
:1026C000664803F0ABFA664803F0A8FA654964234C
:1026D000654A664801F02AFA604B1B68DA685F4B6E
:1026E0001B6842F48072DA605E48FFF73BFF564990
:1026F0000120FEF71EFD03461A46574B1A70524B37
:10270000DB6828209847504A59490720FEF78DFD7D
:1027100003461A46504B1A704F4B93F90030002B6A
:1027200040F08680524B5B681846FDF76BFE4FF019
:102730000002504BFDF7FAFF02460B4610461946C1
:10274000FEF7A2F903464C4A1360494B9B681846B2
:10275000FDF748FE4FF00002484BFDF7E7FF024649
:102760000B4610461946FEF78FF90346444A13609C
:102770003F4B1B681846FDF735FE31A3D3E9002314
:10278000FDF7D4FF02460B4610461946FEF77CF9CA
:1027900003463C4A1360322200213B4803F004FF09
:1027A00032220021394803F0FFFE3222002138484E
:1027B00003F0FAFE324B1B681846FDF735FE024661
:1027C0000B463449304804F043FC2B4B1B68184639
:1027D000FDF72AFE02460B462F492C4804F038FC30
:1027E000284B1B681846FDF71FFE02460B462B4977
:1027F000274804F02DFC0021002000F0D5FB012229
:102800002749214800F066FC1421002000F0CCFB91
:10281000012223491D4800F05DFC2821002000F022
:10282000C3FB01221E491A4800F054FC00F018FBBB
:102830004FF4FA7000F0EEFF59E700BFAFF30080ED
:10284000000000000088C3405405002065240008F3
:10285000ED240008D5240008A00500205402002023
:102860009C020020B003002010100140E402002070
:1028700094050020000059404805002000009040C9
:102880004C05002050050020A4050020D80500209C
:102890000C06002058930008689300087493000801
:1028A0000000002080B590B000AF07F11803282287
:1028B0000021184603F078FE3B1D00221A605A6082
:1028C0009A60DA601A610123BB614FF48033FB61C7
:1028D00000233B620123BB6202237B634FF48033FE
:1028E000BB634FF4E013FB6307F11803184602F0D3
:1028F0002BFD0346002B01D000F0E8F90F237B608D
:102900000223BB600023FB604FF480633B61002324
:102910007B613B1D0221184602F098FF0346002B05
:1029200001D000F0D3F900BF4037BD4680BD0000A4
:1029300080B500AF124B134A1A60114B124A5A600D
:102940000F4B00229A600E4B0022DA600C4B4FF4C2
:1029500080421A610A4B00225A61094B00229A6197
:10296000074B0022DA61064B00221A62044801F08C
:10297000EFFB0346002B01D000F0A8F900BF80BD9B
:102980000002002000540040801A060080B586B086
:1029900000AF07F1080300221A605A609A60DA60FB
:1029A0003B4600221A605A601E4B1F4A1A601D4B9C
:1029B00000225A601B4B00229A601A4B6322DA6095
:1029C000184B00221A61174B00225A61154B002246
:1029D0009A61144803F0D2F80346002B01D000F0AE
:1029E00075F94FF48053BB6007F1080319460D4891
:1029F00003F066FA0346002B01D000F067F92023AC
:102A00003B6000237B603B461946064803F038FCD8
:102A10000346002B01D000F059F900BF1837BD461E
:102A200080BD00BF54020020002C014080B586B05C
:102A300000AF07F1080300221A605A609A60DA605A
:102A40003B4600221A605A601D4B4FF080421A60CC
:102A50001B4B00225A601A4B00229A60184B4FF60B
:102A6000FF72DA60164B00221A61154B00229A6140
:102A7000134803F083F80346002B01D000F026F939
:102A80004FF48053BB6007F1080319460C4803F06C
:102A900017FA0346002B01D000F018F900233B6021
:102AA00000237B603B461946054803F0E9FB0346DB
:102AB000002B01D000F00AF900BF1837BD4680BDD9
:102AC0009C02002080B500AF114B124A1A60104BD7
:102AD0004FF4E1325A600E4B00229A600C4B0022F8
:102AE000DA600B4B00221A61094B0C225A61084B29
:102AF00000229A61064B0022DA61054803F030FC9F
:102B00000346002B01D000F0E1F800BF80BD00BFFC
:102B1000280300200038014080B500AF114B124A55
:102B20001A60104B4FF4E1325A600E4B00229A604B
:102B30000C4B0022DA600B4B00221A61094B0C226D
:102B40005A61084B00229A61064B0022DA6105485F
:102B500003F006FC0346002B01D000F0B7F800BFDD
:102B600080BD00BF6C0300200044004080B582B0EF
:102B700000AF0C4B5B690B4A43F001035361094BF7
:102B80005B6903F001037B607B68002200210F205A
:102B900000F03BFF0F2000F054FF00BF0837BD4698
:102BA00080BD00BF0010024080B588B000AF07F1C3
:102BB000100300221A605A609A60DA60244B9B6905
:102BC000234A43F010039361214B9B6903F01003E8
:102BD000FB60FB681E4B9B691D4A43F02003936119
:102BE0001B4B9B6903F02003BB60BB68184B9B69C0
:102BF000174A43F004039361154B9B6903F00403E8
:102C00007B607B68124B9B69114A43F00803936118
:102C10000F4B9B6903F008033B603B6800224FF4B5
:102C200000510C4801F07CFA4FF400533B61012342
:102C30007B610023BB610223FB6107F1100319468E
:102C4000044801F0E9F800BF2037BD4680BD00BF51
:102C5000001002400010014080B582B000AF7860E3
:102C60007B68164A934225D1154B1B68154A1946B5
:102C70004FF40050FFF78FFC134B1B88002B05D13E
:102C80000F4B1B6801330E4A136004E00C4B1B68AA
:102C9000013B0B4A13600A4B1B68642B03D90A4B98
:102CA00001221A8006E0064B1B68002B02D1064B5E
:102CB00000221A8000BF0837BD4680BD9C0200205C
:102CC00044050020B00300204005002080B400AF80
:102CD00072B600BFFEE7000080B582B000AF00F022
:102CE0001FFA44F62063012278215B4801F0D2FEEE
:102CF0000346002B01D00023A9E040F6C4137B60FB
:102D000002E07B68013B7B607B68002BF9D1AE223F
:102D10000021782000F07EFA20220021782000F0A7
:102D200079FA10220021782000F074FAB0220021F4
:102D3000782000F06FFAC8220021782000F06AFAAB
:102D400000220021782000F065FA1022002178206E
:102D500000F060FA40220021782000F05BFA812226
:102D60000021782000F056FAFF220021782000F0A0
:102D700051FAA1220021782000F04CFAA62200216D
:102D8000782000F047FAA8220021782000F042FACB
:102D90003F220021782000F03DFAA4220021782073
:102DA00000F038FAD3220021782000F033FA002214
:102DB0000021782000F02EFAD5220021782000F0A2
:102DC00029FAF0220021782000F024FAD9220021EB
:102DD000782000F01FFA22220021782000F01AFA51
:102DE000DA220021782000F015FA12220021782042
:102DF00000F010FADB220021782000F00BFA2022EC
:102E00000021782000F006FA8D220021782000F0C1
:102E100001FA14220021782000F0FCF9AF220021F1
:102E2000782000F0F7F92E220021782000F0F2F946
:102E3000002000F043F800F013F8084B00221A803D
:102E4000064B00225A80054B01225A710123184675
:102E50000837BD4680BD00BF00020020400A0020A8
:102E600080B582B000AF0023FB711DE0FB79503BC1
:102E7000DBB21A460021782000F0CCF900220021B4
:102E8000782000F0C7F910220021782000F0C2F964
:102E9000FB79DB01084A1A4480234021782000F0A6
:102EA00053F9FB790133FB71FB79072BDED900BFA6
:102EB00000BF0837BD4680BD4006002080B582B007
:102EC00000AF0346FB71FB79002B01D1002300E02A
:102ED000FF234FF480621946034803F065FB00BFEF
:102EE0000837BD4680BD00BF4006002080B483B0D7
:102EF00000AF0346FB800B46BB801346FB70FB888C
:102F00007F2B48D8BB883F2B45D8254B1B79002BFE
:102F100006D0FB78002B0CBF01230023DBB2FB7033
:102F2000FB78012B1AD1FA88BB88DB0898B20346DC
:102F3000DB0113441B4AD35C5AB2BB8803F007037E
:102F4000012101FA03F35BB2134359B2FA88034635
:102F5000DB011344C9B2134AD1541DE0FA88BB887F
:102F6000DB0898B20346DB0113440E4AD35C5AB225
:102F7000BB8803F00703012101FA03F35BB2DB43D3
:102F80005BB2134059B2FA880346DB011344C9B25D
:102F9000044AD15400E000BF0C37BD4680BC7047E6
:102FA000400A00204006002080B483B000AF0346F2
:102FB0000A46FB801346BB80054AFB881380044AFF
:102FC000BB88538000BF0C37BD4680BC704700BF34
:102FD000400A002080B586B000AF03463960FB711F
:102FE0001346BB713A4B1B881A463B681B78134447
:102FF0007F2B07DC364B5B881A463B685B781344B3
:103000003F2B01DD00235EE000237B614BE03B684A
:103010005A68FB79203B3968497801FB03F319466C
:103020007B690B445B0013441B88FB6000233B61FE
:1030300030E0FA683B6902FA03F303F40043002B23
:1030400010D0234B1A883B699BB2134498B2204B93
:103050005A887B699BB213449BB2BA791946FFF731
:1030600045FF14E01A4B1A883B699BB2134498B28F
:10307000174B5A887B699BB2134499B2BB79002BDA
:103080000CBF01230023DBB21A46FFF72FFF3B6979
:1030900001333B613B681B781A463B699342C8D3B6
:1030A0007B6901337B613B685B781A467B6993429D
:1030B000ADD3074B1A883B681B789BB213449AB276
:1030C000034B1A80FB7918461837BD4680BD00BFF8
:1030D000400A002080B584B000AFF860B9601346A4
:1030E000FB7112E0FB681B78FA79B9681846FFF7A4
:1030F00071FF03461A46FB681B789A4202D0FB68B0
:103100001B7808E0FB680133FB60FB681B78002B31
:10311000E8D1FB681B7818461037BD4680BD00001B
:1031200080B483B000AF074B7B6002E07B68013B5B
:103130007B607B68002BF9D100BF00BF0C37BD4618
:1031400080BC704790D0030090B5C7B002AF044672
:10315000084607F58871A1F588710A60194607F5D8
:103160008873A3F2091322461A7007F58873A3F532
:10317000857302461A7007F58873A3F586730A46AD
:103180001A8007F58873A3F5827307F58872A2F594
:10319000857212781A70002387F80F3115E097F8BE
:1031A0000F3107F58872A2F5887212681A4497F8F1
:1031B0000F310133117807F58872A2F58272D1546C
:1031C00097F80F31013387F80F3197F80F319BB221
:1031D00007F58872A2F5867212889A42DFD807F541
:1031E0008873A3F209131B7899B207F58873A3F5C6
:1031F00086731B8801339BB207F10C020A200090F2
:10320000034801F0E9F800BF07F58A77BD4690BD95
:103210000002002080B586B002AF0346FB710B466A
:10322000BB7113467B71BB793B737B797B73FB79F5
:1032300099B207F10C020A2300930223034801F01C
:10324000CBF800BF1037BD4680BD00BF0002002094
:1032500080B485B000AF154B9B69144A43F001035D
:103260009361124B9B6903F00103BB60BB680F4B7A
:10327000DB690E4A43F08053D3610C4BDB6903F0EA
:1032800080537B607B680A4B5B68FB60FB6823F0C4
:10329000E063FB60FB6843F00073FB60044AFB687B
:1032A000536000BF1437BD4680BC70470010024019
:1032B0000000014080B588B000AF786007F11003CE
:1032C00000221A605A609A60DA607B681B68154AAF
:1032D000934223D1144B9B69134A43F00803936133
:1032E000114B9B6903F00803FB60FB68C0233B6143
:1032F00012237B610323FB6107F1100319460B487E
:1033000000F08AFD084BDB69074A43F40013D361E0
:10331000054BDB6903F40013BB60BB6800BF2037BB
:10332000BD4680BD0054004000100240000C01402A
:1033300080B584B000AF78607B681B682A4A9342EE
:1033400034D12A4B9B69294A43F400639361274B8C
:103350009B6903F40063FB60FB68254B254A1A60F8
:10336000234B10225A60224B00229A60204B80226D
:10337000DA601F4B4FF400721A611D4B4FF400626C
:103380005A611B4B20229A61194B0022DA611848BE
:1033900000F072FB0346002B01D0FFF797FC7B681F
:1033A000134A1A62124A7B68536218E07B681B68F2
:1033B000B3F1804F13D10D4BDB690C4A43F001038D
:1033C000D3610A4BDB6903F00103BB60BB680022D9
:1033D00000211C2000F019FB1C2000F032FB00BF74
:1033E0001037BD4680BD00BF002C014000100240D8
:1033F000E40200205800024080B58AB000AF786037
:1034000007F1180300221A605A609A60DA607B683C
:103410001B68374A934232D1364B9B69354A43F495
:1034200080439361334B9B6903F480437B617B69E9
:10343000304B9B692F4A43F0040393612D4B9B69EA
:1034400003F004033B613B694FF40073BB6102234B
:10345000FB6103237B6207F118031946264800F03D
:10346000DBFC4FF48063BB610023FB6100233B6204
:1034700007F118031946204800F0CEFC34E07B68C1
:103480001B681E4A93422FD11A4BDB69194A43F439
:103490000033D361174BDB6903F40033FB60FB6837
:1034A000144B9B69134A43F004039361114B9B69CE
:1034B00003F00403BB60BB680423BB610223FB6110
:1034C00003237B6207F1180319460B4800F0A4FCA4
:1034D0000823BB610023FB6100233B6207F1180353
:1034E0001946054800F098FC00BF2837BD4680BD4E
:1034F0000038014000100240000801400044004034
:1035000080B400AFFEE780B400AFFEE780B400AF48
:10351000FEE780B400AFFEE780B400AFFEE780B402
:1035200000AF00BFBD4680BC704780B400AF00BF95
:10353000BD4680BC704780B400AF00BFBD4680BCB4
:10354000704780B500AF00F049F900BF80BD0000B2
:1035500080B500AF024800F02BFB00BF80BD00BF6C
:10356000E402002080B500AF024802F0A1FB00BFDA
:1035700080BD00BF9C02002080B400AF012318462C
:10358000BD4680BC704780B582B000AF78603960BE
:1035900002F0C2FF034616221A604FF0FF331846AE
:1035A0000837BD4680BD80B582B000AF78604FF06F
:1035B000FF317868FFF7E7FFFEE780B586B000AF20
:1035C000F860B9607A6000237B610AE0AFF30080A5
:1035D0000146BB685A1CBA60CAB21A707B690133D3
:1035E0007B617A697B689A42F0DB7B681846183702
:1035F000BD4680BD80B586B000AFF860B9607A6026
:1036000000237B6109E0BB685A1CBA601B7818462E
:10361000AFF300807B6901337B617A697B689A42F2
:10362000F1DB7B6818461837BD4680BD80B483B097
:1036300000AF78604FF0FF3318460C37BD4680BCB2
:10364000704780B483B000AF786039603B684FF456
:1036500000525A60002318460C37BD4680BC7047A4
:1036600080B483B000AF7860012318460C37BD46A4
:1036700080BC704780B485B000AFF860B9607A60F4
:10368000002318461437BD4680BC704780B586B00D
:1036900000AF7860144A154BD31A7B617B693B619C
:1036A000134B1B68002B02D1114B124A1A60104BAE
:1036B0001A687B6813443A699A4207D202F02CFFD9
:1036C00003460C221A604FF0FF3309E0084B1B68D9
:1036D000FB60074B1A687B681344054A1360FB685C
:1036E00018461837BD4680BD005000200004000079
:1036F000480A0020600A002080B400AF00BFBD4629
:1037000080BC70470C480D490D4A002302E0D45894
:10371000C4500433C4188C42F9D30A4A0A4C00231B
:1037200001E013600432A242FBD3FFF7E5FF02F091
:10373000F9FEFEF781FF704700000020E401002041
:10374000F4A40008E4010020600A0020FEE7000065
:1037500080B500AF084B1B68074A43F010031360A5
:10376000032000F047F90F2000F008F8FFF770FD84
:103770000023184680BD00BF0020024080B582B003
:1037800000AF7860124B1A68124B1B7819464FF441
:103790007A73B3FBF1F3B2FBF3F3184600F05FF971
:1037A0000346002B01D001230EE07B680F2B0AD8C3
:1037B000002279684FF0FF3000F027F9064A7B6855
:1037C0001360002300E0012318460837BD4680BD82
:1037D00008000020100000200C00002080B400AF82
:1037E000054B1B781A46054B1B681344034A1360AC
:1037F00000BFBD4680BC7047100000204C0A00206E
:1038000080B400AF024B1B681846BD4680BC7047B1
:103810004C0A002080B584B000AF7860FFF7F0FF5D
:10382000B8607B68FB60FB68B3F1FF3F05D00A4BD3
:103830001B781A46FB681344FB6000BFFFF7E0FFEC
:103840000246BB68D31AFA689A42F7D800BF00BF95
:103850001037BD4680BD00BF1000002080B485B089
:1038600000AF78607B6803F00703FB600C4BDB68FC
:10387000BB60BA684FF6FF031340BB60FB681A02D7
:10388000BB68134343F0BF6343F40033BB60044A97
:10389000BB68D36000BF1437BD4680BC704700BF13
:1038A00000ED00E080B400AF044BDB681B0A03F0BE
:1038B00007031846BD4680BC704700BF00ED00E01E
:1038C00080B483B000AF0346FB7197F90730002B3B
:1038D0000BDBFB7903F01F02064997F907305B0900
:1038E000012000FA02F241F8232000BF0C37BD4648
:1038F00080BC704700E100E080B483B000AF0346B5
:103900003960FB7197F90730002B0ADB3B68DAB2AC
:103910000C4997F907301201D2B20B4483F8002307
:103920000AE03B68DAB20849FB7903F00F03043B75
:103930001201D2B20B441A7600BF0C37BD4680BCD0
:10394000704700BF00E100E000ED00E080B489B006
:1039500000AFF860B9607A60FB6803F00703FB61B1
:10396000FB69C3F10703042B28BF0423BB61FB6978
:103970000433062B02D9FB69033B00E000237B6183
:103980004FF0FF32BB6902FA03F3DA43BB681A4017
:103990007B699A404FF0FF317B6901FA03F3D94309
:1039A0007B680B40134318462437BD4680BC7047E4
:1039B00080B582B000AF78607B68013BB3F1807F57
:1039C00001D301230FE00A4A7B68013B53600F21BA
:1039D0004FF0FF30FFF790FF054B00229A60044B39
:1039E00007221A60002318460837BD4680BD00BF75
:1039F00010E000E080B582B000AF78607868FFF733
:103A00002DFF00BF0837BD4680BD80B586B000AF32
:103A10000346B9607A60FB7300237B61FFF742FFC6
:103A200078617A68B9687869FFF790FF024697F97C
:103A30000F3011461846FFF75FFF00BF1837BD462D
:103A400080BD80B582B000AF0346FB7197F90730A7
:103A50001846FFF735FF00BF0837BD4680BD80B56B
:103A600082B000AF78607868FFF7A2FF034618467F
:103A70000837BD4680BD000080B485B000AF7860D7
:103A80000023FB607B68002B01D1012343E07B68AE
:103A90001B681A46224B1344224AA2FB03231B092C
:103AA0009A007B681A647B681F4ADA637B6802228B
:103AB00083F821207B681B681B68FB60FB6823F48C
:103AC0007F5323F03003FB607B685A687B689B68F8
:103AD0001A437B68DB681A437B681B691A437B685F
:103AE0005B691A437B689B691A437B68DB691343F4
:103AF000FA681343FB607B681B68FA681A607B688E
:103B000000229A637B68012283F821207B680022CF
:103B100083F82020002318461437BD4680BC704728
:103B2000F8FFFDBFCDCCCCCC0000024080B586B004
:103B300000AFF860B9607A603B600023FB75FB68FA
:103B400093F82030012B01D102232DE0FB680122E4
:103B500083F82020FB6893F82130012B1DD1FB68EE
:103B6000022283F82120FB6800229A63FB681B680D
:103B70001A68FB681B6822F001021A603B687A68C9
:103B8000B968F86800F01AF9FB681B681A68FB68E6
:103B90001B6842F001021A6005E0FB68002283F80E
:103BA00020200223FB75FB7D18461837BD4680BDDB
:103BB00080B584B000AF78607B68DB6B1B68FB600E
:103BC0007B681B681B68BB607B681B6C04229A4087
:103BD000FB681340002B4FD0BB6803F00403002B9D
:103BE0004AD07B681B681B6803F02003002B07D1B9
:103BF0007B681B681A687B681B6822F004021A60E5
:103C00007B681B68664A934229D07B681B68654ABB
:103C1000934222D07B681B68634A93421AD07B6828
:103C20001B68624A934212D07B681B68604A9342C9
:103C30000AD07B681B685F4A934202D14FF480032D
:103C40000EE04FF080630BE04FF4802308E04FF468
:103C5000804305E04FF4806302E0402300E004234A
:103C6000554A53607B68DB6A002B00F094807B68C8
:103C7000DB6A786898478EE07B681B6C02229A406A
:103C8000FB681340002B56D0BB6803F00203002BE7
:103C900051D07B681B681B6803F02003002B0BD1FD
:103CA0007B681B681A687B681B6822F00A021A602E
:103CB0007B68012283F821207B681B68384A934285
:103CC00029D07B681B68374A934222D07B681B68E7
:103CD000354A93421AD07B681B68344A934212D00B
:103CE0007B681B68324A93420AD07B681B68314A62
:103CF000934202D14FF400130EE04FF000730BE03B
:103D00004FF4003308E04FF4005305E04FF4007324
:103D100002E0202300E00223274A53607B68002250
:103D200083F820207B689B6A002B34D07B689B6AD9
:103D3000786898472FE07B681B6C08229A40FB68E4
:103D40001340002B28D0BB6803F00803002B23D0BE
:103D50007B681B681A687B681B6822F00E021A6079
:103D60007B681A6C7B68DB6B012101FA02F25A60F6
:103D70007B6801229A637B68012283F821207B689B
:103D8000002283F820207B681B6B002B04D07B680B
:103D90001B6B7868984700BF00BF1037BD4680BDD9
:103DA000080002401C000240300002404400024073
:103DB000580002406C0002400000024080B485B010
:103DC00000AFF860B9607A603B60FB681A6CFB6812
:103DD000DB6B012101FA02F25A60FB681B683A684A
:103DE0005A60FB685B68102B08D1FB681B687A6817
:103DF0009A60FB681B68BA68DA6007E0FB681B68BA
:103E0000BA689A60FB681B687A68DA6000BF14378A
:103E1000BD4680BC7047000080B48BB000AF7860B6
:103E2000396000237B6200233B6269E101227B6AE7
:103E300002FA03F3FB613B681B68FA691340BB613C
:103E4000BA69FB699A4240F058813B685B689A4ABC
:103E500093425ED0984A934275D8984A934258D07C
:103E6000964A93426FD8964A934252D0944A9342CC
:103E700069D8944A93424CD0924A934263D8924A6A
:103E8000934246D0904A93425DD8122B2AD8122BE7
:103E900059D801A252F823F0133F0008ED3E000864
:103EA000FF3E0008413F0008473F0008473F000829
:103EB000473F0008473F0008473F0008473F0008CA
:103EC000473F0008473F0008473F0008473F0008BA
:103ED000473F0008473F0008473F0008F53E0008FD
:103EE000093F0008794A934213D02CE03B68DB6815
:103EF0003B6229E03B68DB6804333B6224E03B68BB
:103F0000DB6808333B621FE03B68DB680C333B62D5
:103F10001AE03B689B68002B02D104233B6213E04C
:103F20003B689B68012B05D108233B627B68FA69DB
:103F30001A6109E008233B627B68FA695A6103E071
:103F400000233B6200E000BFBB69FF2B01D87B6808
:103F500001E07B6804337B61BB69FF2B02D87B6A7D
:103F60009B0002E07B6A083B9B003B617B691A680F
:103F70000F213B6901FA03F3DB431A40396A3B69BD
:103F800001FA03F31A437B691A603B685B6803F02C
:103F90008053002B00F0B1804D4B9B694C4A43F09D
:103FA000010393614A4B9B6903F00103BB60BB684B
:103FB000484A7B6A9B08023352F82330FB607B6AD5
:103FC00003F003039B000F2202FA03F3DB43FA68BA
:103FD0001340FB607B68404A934213D07B683F4AA2
:103FE00093420DD07B683E4A934207D07B683D4A9E
:103FF000934201D1032306E0042304E0022302E0FC
:10400000012300E000237A6A02F003029200934049
:10401000FA681343FB602F497B6A9B080233FA68F6
:1040200041F823203B685B6803F48033002B06D003
:104030002D4B1A682C49BB6913430B6006E02A4BD1
:104040001A68BB69DB43284913400B603B685B6817
:1040500003F40033002B06D0234B5A682249BB6976
:1040600013434B6006E0204B5A68BB69DB431E4993
:1040700013404B603B685B6803F48013002B06D051
:10408000194B9A681849BB6913438B6006E0164BBD
:104090009A68BB69DB43144913408B603B685B68DB
:1040A00003F40013002B21D00F4BDA680E49BB69D3
:1040B0001343CB6021E000BF00003210000031103C
:1040C000000022100000211000001210000011104A
:1040D000001002400000014000080140000C0140B7
:1040E0000010014000140140000401400B4BDA684D
:1040F000BB69DB4309491340CB607B6A01337B62B8
:104100003B681A687B6A22FA03F3002B7FF48EAEB9
:1041100000BF00BF2C37BD4680BC70470004014083
:1041200080B483B000AF78600B467B8013467B7011
:104130007B78002B03D07A887B681A6103E07B8848
:104140001A047B681A6100BF0C37BD4680BC7047FB
:1041500080B584B000AF78607B68002B01D101236B
:104160002BE17B6893F83D30DBB2002B06D17B68F6
:10417000002283F83C207868FFF79CF87B682422B3
:1041800083F83D207B681B681A687B681B6822F0F7
:1041900001021A607B681B681A687B681B6842F41E
:1041A00000421A607B681B681A687B681B6822F4EF
:1041B00000421A6001F09CFCF8607B685B68814AF1
:1041C000934207D8FB68804A934294BF012300239F
:1041D000DBB206E0FB687D4A934294BF01230023D3
:1041E000DBB2002B01D00123E7E0FB68784AA2FB99
:1041F00003239B0CBB607B681B685B6823F03F015B
:104200007B681B68BA680A435A607B681B681B6A34
:1042100023F03F017B685B686A4A934202D8BB681F
:10422000013309E0BB684FF4967202FB03F3694A5D
:10423000A2FB03239B0901337A6812680B431362C4
:104240007B681B68DB6923F44F4222F0FF027B6826
:104250005B685C498B4219D8FB68591E7B685B68B8
:104260005B00B1FBF3F3591C40F6FC730B40002BD1
:104270000AD0FB68591E7B685B685B00B1FBF3F3F7
:104280000133C3F30B0351E004234FE07B689B68C9
:10429000002B11D1FB68581E7B6859680B465B00E8
:1042A0000B44B0FBF3F30133C3F30B03002B0CBF40
:1042B00001230023DBB212E0FB68581E7B685968BB
:1042C0000B469B000B4499000B44B0FBF3F3013306
:1042D000C3F30B03002B0CBF01230023DBB2002B25
:1042E00001D0012322E07B689B68002B0ED1FB6884
:1042F000581E7B6859680B465B000B44B0FBF3F318
:104300000133C3F30B0343F400430FE0FB68581E73
:104310007B6859680B469B000B4499000B44B0FB2B
:10432000F3F30133C3F30B0343F4404379680968A3
:104330001343CB617B681B681B6823F0C0017B685B
:10434000DA697B681B6A1A437B681B680A431A6038
:104350007B681B689B6823F4034323F0FF037A68A0
:1043600011697A68D26811437A6812680B439360C6
:104370007B681B68DB6823F0FF017B685A697B68F8
:104380009B691A437B681B680A43DA607B681B6879
:104390001A687B681B6842F001021A607B68002281
:1043A0001A647B68202283F83D207B6800221A6310
:1043B0007B68002283F83E20002318461037BD4654
:1043C00080BD00BFA08601007F841E00FF083D0065
:1043D00083DE1B43D34D621080B588B002AFF86016
:1043E0007A601A460B467B8113463B81FFF708FA39
:1043F0007861FB6893F83D30DBB2202B40F0E08021
:104400007B690093192301227049F86800F0C0FD10
:104410000346002B01D00223D3E0FB6893F83C3025
:10442000012B01D10223CCE0FB68012283F83C2060
:10443000FB681B681B6803F00103012B07D0FB68B6
:104440001B681A68FB681B6842F001021A60FB686F
:104450001B681A68FB681B6822F400621A60FB681C
:10446000212283F83D20FB68102283F83E20FB6860
:1044700000221A64FB687A685A62FB683A895A8596
:10448000FB685B8D9AB2FB681A85FB68504ADA625A
:1044900079897B693A6AF86800F02AFC0346002BA8
:1044A00001D001238DE000233B61FB681B685B6941
:1044B0003B61FB681B689B693B613B6966E07A690D
:1044C000396AF86800F03AFE0346002B0DD0FB680D
:1044D0001B6C042B07D1FB681B681A68FB681B6800
:1044E00042F400721A6001236BE0FB685B6A1A7881
:1044F000FB681B681A61FB685B6A5A1CFB685A629E
:10450000FB685B8D9BB2013B9AB2FB685A85FB68E6
:104510001B8D013B9AB2FB681A85FB681B685B69BF
:1045200003F00403042B1BD1FB681B8D002B17D059
:10453000FB685B6A1A78FB681B681A61FB685B6A38
:104540005A1CFB685A62FB685B8D9BB2013B9AB2B6
:10455000FB685A85FB681B8D013B9AB2FB681A8584
:104560007A69396AF86800F02AFE0346002B0DD0FC
:10457000FB681B6C042B07D1FB681B681A68FB687F
:104580001B6842F400721A6001231AE0FB681B8D5D
:10459000002B94D1FB681B681A68FB681B6842F407
:1045A00000721A60FB68202283F83D20FB6800221D
:1045B00083F83E20FB68002283F83C20002300E0C3
:1045C000022318461837BD4680BD00BF0200100008
:1045D0000000FFFF80B58CB002AFF8607A601A4629
:1045E0000B467B8113463B8100233B62FFF708F9B2
:1045F0007862FB6893F83D30DBB2202B40F03F82BD
:104600007B6A0093192301227F49F86800F0C0FCFF
:104610000346002B01D0022332E2FB6893F83C30C2
:10462000012B01D102232BE2FB68012283F83C20FD
:10463000FB681B681B6803F00103012B07D0FB68B4
:104640001B681A68FB681B6842F001021A60FB686D
:104650001B681A68FB681B6822F400621A60FB681A
:10466000222283F83D20FB68102283F83E20FB685D
:1046700000221A64FB687A685A62FB683A895A8594
:10468000FB685B8D9AB2FB681A85FB685F4ADA6249
:1046900079897B6A3A6BF86800F0ACFB0346002B23
:1046A00001D00123ECE1FB681B8D002B13D100230B
:1046B000FB61FB681B685B69FB61FB681B689B69AE
:1046C000FB61FB69FB681B681A68FB681B6842F4A6
:1046D00000721A60C0E1FB681B8D012B1ED1FB68C4
:1046E0001B681A68FB681B6822F480621A6072B645
:1046F00000BF0023BB61FB681B685B69BB61FB6893
:104700001B689B69BB61BB69FB681B681A68FB6817
:104710001B6842F400721A6062B635E0FB681B8DBC
:10472000022B1ED1FB681B681A68FB681B6842F4E9
:1047300000621A6072B600BF00237B61FB681B68D1
:104740005B697B61FB681B689B697B617B69FB68BC
:104750001B681A68FB681B6822F480621A6062B6E4
:1047600012E0FB681B681A68FB681B6842F48062F1
:104770001A6000233B61FB681B685B693B61FB6857
:104780001B689B693B613B6966E1FB681B8D032BE2
:1047900000F21F81FB681B8D012B23D17A6A396BD4
:1047A000F86800F04DFD0346002B01D0012367E1BE
:1047B000FB681B681A69FB685B6AD2B21A70FB68F7
:1047C0005B6A5A1CFB685A62FB681B8D013B9AB2FC
:1047D000FB681A85FB685B8D9BB2013B9AB2FB6854
:1047E0005A8539E1FB681B8D022B52D17B6A0093FD
:1047F0003B6B00220649F86800F0CAFB0346002B19
:1048000008D001233CE100BF020010000000FFFFC0
:104810000400010072B600BFFB681B681A68FB68E1
:104820001B6842F400721A60FB681B681A69FB6817
:104830005B6AD2B21A70FB685B6A5A1CFB685A62E8
:10484000FB681B8D013B9AB2FB681A85FB685B8D88
:104850009BB2013B9AB2FB685A8562B600BFFB6807
:104860001B681A69FB685B6AD2B21A70FB685B6AE4
:104870005A1CFB685A62FB681B8D013B9AB2FB68AD
:104880001A85FB685B8D9BB2013B9AB2FB685A8527
:10489000E2E07B6A00933B6B00227B49F86800F002
:1048A00077FB0346002B01D00123E9E0FB681B687E
:1048B0001A68FB681B6822F480621A6072B600BF37
:1048C000FB681B681A69FB685B6AD2B21A70FB68E6
:1048D0005B6A5A1CFB685A62FB681B8D013B9AB2EB
:1048E000FB681A85FB685B8D9BB2013B9AB2FB6843
:1048F0005A85664B1B68DB08654AA2FB03231A0A2C
:1049000013469B001344DA00D31A3B623B6A013B17
:104910003B623B6A002B18D1FB6800221A63FB68DC
:10492000202283F83D20FB68002283F83E20FB68AC
:104930001B6C43F02002FB681A6462B600BFFB6880
:10494000002283F83C2001239AE0FB681B685B6926
:1049500003F00403042BD9D1FB681B681A68FB68B9
:104960001B6842F400721A60FB681B681A69FB68D6
:104970005B6AD2B21A70FB685B6A5A1CFB685A62A7
:10498000FB681B8D013B9AB2FB681A85FB685B8D47
:104990009BB2013B9AB2FB685A8562B600BFFB68C6
:1049A0001B681A69FB685B6AD2B21A70FB685B6AA3
:1049B0005A1CFB685A62FB681B8D013B9AB2FB686C
:1049C0001A85FB685B8D9BB2013B9AB2FB685A85E6
:1049D00042E07A6A396BF86800F032FC0346002B3B
:1049E00001D001234CE0FB681B681A69FB685B6A15
:1049F000D2B21A70FB685B6A5A1CFB685A62FB6889
:104A00001B8D013B9AB2FB681A85FB685B8D9BB2DC
:104A1000013B9AB2FB685A85FB681B685B6903F02F
:104A20000403042B18D1FB681B681A69FB685B6AD6
:104A3000D2B21A70FB685B6A5A1CFB685A62FB6848
:104A40001B8D013B9AB2FB681A85FB685B8D9BB29C
:104A5000013B9AB2FB685A85FB681B8D002B7FF4E3
:104A600094AEFB68202283F83D20FB68002283F887
:104A70003E20FB68002283F83C20002300E0022354
:104A800018462837BD4680BD0400010008000020FC
:104A900089B5F81480B58AB002AFF8607A603B60DF
:104AA0000B467B81FEF7ACFEF8610123BB61FB681E
:104AB00093F83D30DBB2202B40F01181FB6900936D
:104AC000192301228849F86800F062FA0346002B96
:104AD00001D0022304E1FB6893F83C30012B01D1A3
:104AE0000223FDE0FB68012283F83C20FB681B6881
:104AF0001B6803F00103012B07D0FB681B681A68D1
:104B0000FB681B6842F001021A60FB681B681A68A8
:104B1000FB681B6822F400621A60FB68242283F899
:104B20003D20FB6800221A64FB68704ADA62FB6869
:104B30001B681A68FB681B6842F480721A60FB6984
:104B400000933B6800224FF00111F86800F020FA52
:104B50000346002B0DD0FB681B681B6803F48073B1
:104B6000B3F5807F03D1FB684FF400721A6403230E
:104B7000B6E07B89DBB21A46FB681B6802F0FE02D6
:104B80001A61FEF73DFEF861FB681B685B6903F084
:104B90000203022B0CBF01230023DBB2FB75FB6871
:104BA0001B685B6903F48063B3F5806F0CBF01235E
:104BB0000023DBB2BB7525E0FEF722FE0246FB694F
:104BC000D31A3A689A4202D33B68002B03D1FB68A0
:104BD000A02283F83D20FB681B685B6903F0020399
:104BE000022B0CBF01230023DBB2FB75FB681B68A3
:104BF0005B6903F48063B3F5806F0CBF012300236E
:104C0000DBB2BB75FB6893F83D30DBB2A02B05D05F
:104C1000FB7D002B02D1BB7D002BCDD0FB68202279
:104C200083F83D20FB681B685B6903F00203022BDD
:104C300029D1FB681B681A68FB681B6842F4007284
:104C40001A6000233B61FB681B685B693B61FB6882
:104C50001B689B693B613B69FB6900931923012237
:104C60002149F86800F094F90346002B01D0012394
:104C700036E0FB68202283F83D20FB68002283F8A1
:104C80003C2000232CE0FB681B681A68FB681B684B
:104C900042F400721A60FB681B686FF480625A610C
:104CA000FB690093192301220F49F86800F070F99D
:104CB0000346002B01D0012312E0BB690133BB6125
:104CC000BA697B689A42FFF432AFFB68202283F80E
:104CD0003D20FB68002283F83C20012300E00223F2
:104CE00018462037BD4680BD020010000000FFFFBF
:104CF00080B588B002AFF8607A603B600B467B817C
:104D0000FB68DB6A7B617B69082B06D07B69012B22
:104D100003D07B6913F5803F08D1FB681B681A68D4
:104D2000FB681B6842F480721A600BE0FB681B6B27
:104D3000122B07D1FB681B681A68FB681B6842F4DA
:104D400080721A603B6800937B6800224FF001116B
:104D5000F86800F01DF90346002B0DD0FB681B68B6
:104D60001B6803F48073B3F5807F03D1FB684FF4B5
:104D700000721A64032335E0FB681B69B3F5804FAA
:104D800008D17B89DBB21A46FB681B6802F0FE0281
:104D90001A611BE07B89DB11DBB203F00603DBB297
:104DA00063F00F03DAB2FB681B681A613B687A682C
:104DB0000E49F86800F043F90346002B01D00123A7
:104DC00010E07B89DAB2FB681B681A613B687A687D
:104DD0000749F86800F033F90346002B01D001239E
:104DE00000E0002318461837BD4680BD08000100CA
:104DF0000200010080B588B002AFF8607A603B60C5
:104E00000B467B81FB68DB6A7B61FB681B681A6869
:104E1000FB681B6842F480621A607B69082B06D02D
:104E20007B69012B03D07B6913F5803F08D1FB68B8
:104E30001B681A68FB681B6842F480721A600BE0FA
:104E4000FB681B6B112B07D1FB681B681A68FB689A
:104E50001B6842F480721A603B6800937B680022F2
:104E60004FF00111F86800F093F80346002B0DD0C5
:104E7000FB681B681B6803F48073B3F5807F03D164
:104E8000FB684FF400721A64032379E0FB681B6926
:104E9000B3F5804F08D17B89DBB243F00103DAB26E
:104EA000FB681B681A615FE07B89DB11DBB203F0F2
:104EB0000603DBB263F00F03DAB2FB681B681A610A
:104EC0003B687A683049F86800F0B9F80346002B6F
:104ED00001D0012354E07B89DAB2FB681B681A61B8
:104EE0003B687A682949F86800F0A9F80346002B66
:104EF00001D0012344E000233B61FB681B685B6930
:104F00003B61FB681B689B693B613B69FB681B68F5
:104F10001A68FB681B6842F480721A603B68009351
:104F20007B6800224FF00111F86800F031F8034669
:104F3000002B0DD0FB681B681B6803F48073B3F56E
:104F4000807F03D1FB684FF400721A64032317E0DB
:104F50007B89DB11DBB203F00603DBB263F00E03E7
:104F6000DAB2FB681B681A613B687A680749F8681F
:104F700000F065F80346002B01D0012300E0002378
:104F800018461837BD4680BD080001000200010028
:104F900080B584B000AFF860B9603B601346FB7128
:104FA00025E03B68B3F1FF3F21D0FEF729FC024624
:104FB000BB69D31A3A689A4202D33B68002B16D1D8
:104FC000FB6800221A63FB68202283F83D20FB68FF
:104FD000002283F83E20FB681B6C43F02002FB6834
:104FE0001A64FB68002283F83C20012323E0BB689D
:104FF0001B0CDBB2012B0DD1FB681B685B69DA432C
:10500000BB6813409BB2002B0CBF01230023DBB213
:105010001A460CE0FB681B689B69DA43BB681340C7
:105020009BB2002B0CBF01230023DBB21A46FB7995
:105030009A42B6D0002318461037BD4680BD80B5D1
:1050400084B000AFF860B9607A603B6051E0FB6803
:105050001B685B6903F48063B3F5806F23D1FB6841
:105060001B681A68FB681B6842F400721A60FB68D0
:105070001B686FF480625A61FB6800221A63FB6848
:10508000202283F83D20FB68002283F83E20FB6845
:105090001B6C43F00402FB681A64FB68002283F86F
:1050A0003C20012346E07B68B3F1FF3F21D0FEF7AF
:1050B000A7FB02463B68D31A7A689A4202D37B6800
:1050C000002B16D1FB6800221A63FB68202283F8AC
:1050D0003D20FB68002283F83E20FB681B6C43F0F8
:1050E0002002FB681A64FB68002283F83C2001233D
:1050F00020E0BB681B0CDBB2012B0CD1FB681B68EA
:105100005B69DA43BB6813409BB2002B14BF0123D9
:105110000023DBB20BE0FB681B689B69DA43BB68CA
:1051200013409BB2002B14BF01230023DBB2002BE2
:105130008DD1002318461037BD4680BD80B584B0A0
:1051400000AFF860B9607A602DE0F86800F0CEF842
:105150000346002B01D001232DE0BB68B3F1FF3FD4
:1051600021D0FEF74DFB02467B68D31ABA689A42FB
:1051700002D3BB68002B16D1FB6800221A63FB68C0
:10518000202283F83D20FB68002283F83E20FB6844
:105190001B6C43F02002FB681A64FB68002283F852
:1051A0003C20012307E0FB681B685B6903F0800378
:1051B000802BCAD1002318461037BD4680BD80B56C
:1051C00084B000AFF860B9607A602DE0F86800F054
:1051D0008DF80346002B01D001232DE0BB68B3F10D
:1051E000FF3F21D0FEF70CFB02467B68D31ABA685A
:1051F0009A4202D3BB68002B16D1FB6800221A63C7
:10520000FB68202283F83D20FB68002283F83E20C3
:10521000FB681B6C43F02002FB681A64FB680022E9
:1052200083F83C20012307E0FB681B685B6903F0FF
:105230000403042BCAD1002318461037BD4680BD95
:1052400080B584B000AFF860B9607A6042E0FB6876
:105250001B685B6903F01003102B19D1FB681B68F6
:105260006FF010025A61FB6800221A63FB6820226B
:1052700083F83D20FB68002283F83E20FB681A6C0F
:10528000FB681A64FB68002283F83C20012329E0B4
:10529000FEF7B6FA02467B68D31ABA689A4202D37E
:1052A000BB68002B16D1FB6800221A63FB68202222
:1052B00083F83D20FB68002283F83E20FB681B6CCE
:1052C00043F02002FB681A64FB68002283F83C204C
:1052D000012307E0FB681B685B6903F04003402B78
:1052E000B5D1002318461037BD4680BD80B483B0C9
:1052F00000AF78607B681B685B6903F48063B3F57B
:10530000806F1BD17B681B686FF480625A617B6879
:1053100000221A637B68202283F83D207B680022EC
:1053200083F83E207B681B6C43F004027B681A64A0
:105330007B68002283F83C20012300E0002318460C
:105340000C37BD4680BC704780B586B000AF786032
:105350007B68002B01D1012372E27B681B6803F09C
:105360000103002B00F08780924B5B6803F00C0375
:10537000042B0CD08F4B5B6803F00C03082B12D16D
:105380008C4B5B6803F48033B3F5803F0BD1894BC2
:105390001B6803F40033002B6CD07B685B68002B28
:1053A00068D101234CE27B685B68B3F5803F06D18E
:1053B000804B1B687F4A43F4803313602EE07B6888
:1053C0005B68002B0CD17B4B1B687A4A23F480333B
:1053D0001360784B1B68774A23F4802313601DE029
:1053E0007B685B68B3F5A02F0CD1724B1B68714AC8
:1053F00043F4802313606F4B1B686E4A43F4803381
:1054000013600BE06B4B1B686A4A23F48033136014
:10541000684B1B68674A23F4802313607B685B68D2
:10542000002B13D0FEF7ECF9386108E0FEF7E8F93D
:1054300002463B69D31A642B01D9032300E25D4B7A
:105440001B6803F40033002BF0D014E0FEF7D8F90A
:10545000386108E0FEF7D4F902463B69D31A642BA1
:1054600001D90323ECE1534B1B6803F40033002BF9
:10547000F0D100E000BF7B681B6803F00203002B43
:1054800063D04C4B5B6803F00C03002B0BD0494BF3
:105490005B6803F00C03082B1CD1464B5B6803F4DC
:1054A0008033002B16D1434B1B6803F00203002B03
:1054B00005D07B681B69012B01D00123C0E13D4B66
:1054C0001B6823F0F8027B685B69DB0039491343F2
:1054D0000B603AE07B681B69002B20D0364B012221
:1054E0001A60FEF78DF9386108E0FEF789F9024687
:1054F0003B69D31A022B01D90323A1E12D4B1B6871
:1055000003F00203002BF0D02A4B1B6823F0F802B3
:105510007B685B69DB00274913430B6015E0264B72
:1055200000221A60FEF76CF9386108E0FEF768F9AE
:1055300002463B69D31A022B01D9032380E11D4B9C
:105540001B6803F00203002BF0D17B681B6803F09B
:105550000803002B3AD07B689B69002B19D0174BAE
:1055600001221A60FEF74CF9386108E0FEF748F9AD
:1055700002463B69D31A022B01D9032360E10D4B8C
:105580005B6A03F00203002BF0D0012000F0D8FA90
:105590001CE00A4B00221A60FEF732F938610FE076
:1055A000FEF72EF902463B69D31A022B08D90323D2
:1055B00046E100BF00100240000042428004424227
:1055C000924B5B6A03F00203002BE9D17B681B68F6
:1055D00003F00403002B00F0A6800023FB758B4B27
:1055E000DB6903F08053002B0DD1884BDB69874AC0
:1055F00043F08053D361854BDB6903F08053BB607C
:10560000BB680123FB75824B1B6803F48073002B7E
:1056100018D17F4B1B687E4A43F480731360FEF7FA
:10562000EFF8386108E0FEF7EBF802463B69D31A61
:10563000642B01D9032303E1754B1B6803F48073CA
:10564000002BF0D07B68DB68012B06D16F4B1B6A07
:105650006E4A43F0010313622DE07B68DB68002B88
:105660000CD16A4B1B6A694A23F001031362674B32
:105670001B6A664A23F0040313621CE07B68DB6844
:10568000052B0CD1614B1B6A604A43F00403136283
:105690005E4B1B6A5D4A43F0010313620BE05B4BF8
:1056A0001B6A5A4A23F001031362584B1B6A574A7C
:1056B00023F0040313627B68DB68002B15D0FEF730
:1056C0009FF838610AE0FEF79BF802463B69D31A5F
:1056D00041F28832934201D90323B1E04B4B1B6A5C
:1056E00003F00203002BEED014E0FEF789F83861D6
:1056F0000AE0FEF785F802463B69D31A41F2883288
:10570000934201D903239BE0404B1B6A03F0020341
:10571000002BEED1FB7D012B05D13C4BDB693B4AD5
:1057200023F08053D3617B68DB69002B00F0878016
:10573000364B5B6803F00C03082B61D07B68DB6998
:10574000022B46D1334B00221A60FEF759F838611C
:1057500008E0FEF755F802463B69D31A022B01D93F
:1057600003236DE0294B1B6803F00073002BF0D17D
:105770007B681B6AB3F5803F08D1244B5B6823F438
:1057800000327B689B68214913434B601F4B5B6869
:1057900023F474127B68196A7B685B6A0B431B49AC
:1057A00013434B601B4B01221A60FEF729F8386146
:1057B00008E0FEF725F802463B69D31A022B01D90F
:1057C00003233DE0114B1B6803F00073002BF0D066
:1057D00035E0104B00221A60FEF712F8386108E03D
:1057E000FEF70EF802463B69D31A022B01D90323B8
:1057F00026E0064B1B6803F00073002BF0D11EE07F
:105800007B68DB69012B07D1012319E000100240FE
:1058100000700040600042420B4B5B68FB60FB681D
:1058200003F480327B681B6A9A4206D1FB6803F45A
:1058300070127B685B6A9A4201D0012300E000236A
:1058400018461837BD4680BD0010024080B584B0B0
:1058500000AF786039607B68002B01D10123D0E074
:105860006A4B1B6803F007033A689A4210D9674BEA
:105870001B6823F0070265493B6813430B60634BC9
:105880001B6803F007033A689A4201D00123B8E08D
:105890007B681B6803F00203002B20D07B681B6829
:1058A00003F00403002B05D0594B5B68584A43F4BE
:1058B000E06353607B681B6803F00803002B05D08E
:1058C000534B5B68524A43F460535360504B5B68E0
:1058D00023F0F0027B689B684D4913434B607B6863
:1058E0001B6803F00103002B40D07B685B68012B31
:1058F00007D1474B1B6803F40033002B15D101235C
:105900007FE07B685B68022B07D1414B1B6803F08B
:105910000073002B09D1012373E03D4B1B6803F09A
:105920000203002B01D101236BE0394B5B6823F0AC
:1059300003027B685B68364913434B60FDF760FFE9
:10594000F8600AE0FDF75CFF0246FB68D31A41F2FB
:105950008832934201D9032353E02D4B5B6803F057
:105960000C027B685B689B009A42EBD1274B1B685B
:1059700003F007033A689A4210D2244B1B6823F0C5
:10598000070222493B6813430B60204B1B6803F05E
:1059900007033A689A4201D0012332E07B681B6812
:1059A00003F00403002B08D0194B5B6823F4E0627A
:1059B0007B68DB68164913434B607B681B6803F008
:1059C0000803002B09D0124B5B6823F460527B68FC
:1059D0001B69DB000E4913434B6000F021F80246BF
:1059E0000B4B5B681B0903F00F030A49CB5C22FADF
:1059F00003F3094A1360094B1B681846FDF7BEFE06
:105A0000002318461037BD4680BD00BF002002406D
:105A100000100240F0A00008080000200C00002048
:105A200090B48AB000AF294B3C1D0FCB84E80F0027
:105A300040F201233B800023FB610023BB61002374
:105A40007B6200237B6100233B62214B5B68FB612F
:105A5000FB6903F00C03042B02D0082B03D02BE0CE
:105A60001C4B3B622BE0FB699B0C03F00F032833BC
:105A70003B4413F8243C7B61FB6903F48033002B27
:105A800012D0134B5B685B0C03F0010328333B44DB
:105A900013F8283CBB617B690E4A03FB02F2BB6929
:105AA000B2FBF3F37B6204E07B690B4A02FB03F376
:105AB0007B627B6A3B6202E0064B3B6200BF3B6A53
:105AC00018462837BD4690BC704700BF8493000835
:105AD0000010024000127A0000093D0080B400AFBF
