:020000040800F2
:1000000000500020810E0008110E0008170E000895
:100010001D0E0008230E0008290E00080000000035
:100020000000000000000000000000002F0E00088B
:100030003B0E000800000000470E0008530E0008A9
:10004000C90E0008C90E0008C90E0008C90E000834
:10005000C90E0008C90E0008C90E0008C90E000824
:10006000C90E0008C90E0008C90E0008C90E000814
:10007000C90E0008C90E0008C90E0008610E00086C
:10008000C90E0008C90E0008C90E0008C90E0008F4
:10009000C90E0008C90E0008C90E0008C90E0008E4
:1000A000C90E0008C90E0008C90E0008C90E0008D4
:1000B000C90E0008C90E0008C90E0008C90E0008C4
:1000C000C90E0008C90E0008C90E0008C90E0008B4
:1000D000C90E0008C90E0008C90E0008C90E0008A4
:1000E000C90E0008C90E0008C90E00080000000073
:1000F0000000000000000000000000000000000000
:0C01000000000000000000005FF808F1A3
:10010C0010B5054C237833B9044B13B10448AFF345
:10011C0000800123237010BD14000020000000009B
:10012C006833000808B5034B1BB103490348AFF310
:10013C00008008BD00000000180000206833000893
:10014C0080B485B000AF78600023FB6008E0FB68EA
:10015C009B007A68134400221A60FB680133FB6031
:10016C00FB68632BF3D900BF00BF1437BD4680BCBE
:10017C00704780B487B000AF0346B9607A60FB81EA
:10018C0000237B613DE07A69BB689A421BD27B6994
:10019C009B007A6813441A68FB891B04DB431846DE
:1001AC007B699B0079680B4402401A607B699B0059
:1001BC007A6813441968FA897B699B007868034450
:1001CC000A431A601AE07B699B007A6813441A6828
:1001DC00FB89DB4318467B699B0079680B44024022
:1001EC001A607B699B007A6813441968FB891A04AE
:1001FC007B699B00786803440A431A607B6901336E
:10020C007B617B69632BBED900BF00BF1C37BD4629
:10021C0080BC704780B582B000AF00F051FE00F09A
:10022C0063F800F0F5F900F095F900F075F900F0BD
:10023C00A1F800F01DF900F045F900F0C9F80A2109
:10024C000A2000F04DFB01222049214800F0DEFB82
:10025C0000F0A2FA4FF4FA7000F094FE1D4802F080
:10026C0011FD1D4964231D4A1D4801F017F8194B57
:10027C001B68DA68174B1B6842F48072DA60002343
:10028C007B601548FFF75CFF134A79684FF4005008
:10029C00FFF76FFF134B1B88002B03D17B680133D7
:1002AC007B6002E07B68013B7B607B68642B03D93D
:1002BC000C4B01221A8005E07B68002B02D1094B04
:1002CC0000221A800A2000F05DFEDDE7000000200D
:1002DC008033000884000020980100201010014099
:1002EC00CC0000202803002080B590B000AF07F1AF
:1002FC00180328220021184603F028F83B1D002281
:10030C001A605A609A60DA601A610123BB614FF47B
:10031C008033FB6100233B620123BB6202237B63BE
:10032C004FF48033BB634FF4E013FB6307F1180306
:10033C00184602F03DF80346002B01D000F062F99C
:10034C000F237B600223BB600023FB604FF48063B0
:10035C003B6100237B613B1D0221184602F0AAFA87
:10036C000346002B01D000F04DF900BF4037BD46CD
:10037C0080BD000080B500AF124B134A1A60114BC0
:10038C00124A5A600F4B00229A600E4B0022DA6020
:10039C000C4B4FF480421A610A4B00225A61094BF4
:1003AC0000229A61074B0022DA61064B00221A6286
:1003BC00044801F085FA0346002B01D000F022F925
:1003CC0000BF80BD3000002000540040801A0600A1
:1003DC0080B586B000AF07F1080300221A605A609E
:1003EC009A60DA603B4600221A605A601E4B1F4A24
:1003FC001A601D4B00225A601B4B00229A601A4B4C
:10040C006322DA60184B00221A61174B00225A61E2
:10041C00154B00229A61144802F0E4FB0346002BB2
:10042C0001D000F0EFF84FF48053BB6007F10803E4
:10043C0019460D4802F070FC0346002B01D000F069
:10044C00E1F820233B6000237B603B4619460648BD
:10045C0002F01EFE0346002B01D000F0D3F800BFC3
:10046C001837BD4680BD00BF84000020002C014021
:10047C0080B500AF114B124A1A60104B4FF4E132A9
:10048C005A600E4B00229A600C4B0022DA600B4B28
:10049C0000221A61094B0C225A61084B00229A6106
:1004AC00064B0022DA61054802F050FE0346002B91
:1004BC0001D000F0A7F800BF80BD00BF10010020E4
:1004CC000038014080B500AF114B124A1A60104B36
:1004DC004FF4E1325A600E4B00229A600C4B002212
:1004EC00DA600B4B00221A61094B0C225A61084B43
:1004FC0000229A61064B0022DA61054802F026FEC2
:10050C000346002B01D000F07DF800BF80BD00BF7A
:10051C00540100200044004080B582B000AF0C4B69
:10052C005B690B4A43F001035361094B5B6903F0B0
:10053C0001037B607B68002200210F2000F01DFE70
:10054C000F2000F036FE00BF0837BD4680BD00BF4F
:10055C000010024080B588B000AF07F110030022F4
:10056C001A605A609A60DA60244B9B69234A43F004
:10057C0010039361214B9B6903F01003FB60FB6834
:10058C001E4B9B691D4A43F0200393611B4B9B69D7
:10059C0003F02003BB60BB68184B9B69174A43F000
:1005AC0004039361154B9B6903F004037B607B6828
:1005BC00124B9B69114A43F0080393610F4B9B69E3
:1005CC0003F008033B603B6800224FF400510C48D9
:1005DC0001F05EF94FF400533B6101237B61002372
:1005EC00BB610223FB6107F110031946044800F0BC
:1005FC00CBFF00BF2037BD4680BD00BF00100240BE
:10060C000010014080B400AF72B600BFFEE70000DE
:10061C0080B582B000AF00F01FFA44F620630122CF
:10062C0078215B4801F08EFB0346002B01D00023A0
:10063C00A9E040F6C4137B6002E07B68013B7B6061
:10064C007B68002BF9D1AE220021782000F07EFAD5
:10065C0020220021782000F079FA10220021782045
:10066C0000F074FAB0220021782000F06FFAC82252
:10067C000021782000F06AFA00220021782000F096
:10068C0065FA10220021782000F060FA4022002147
:10069C00782000F05BFA81220021782000F056FAD5
:1006AC00FF220021782000F051FAA12200217820AD
:1006BC0000F04CFAA6220021782000F047FAA8227C
:1006CC000021782000F042FA3F220021782000F02F
:1006DC003DFAA4220021782000F038FAD322002120
:1006EC00782000F033FA00220021782000F02EFA56
:1006FC00D5220021782000F029FAF0220021782060
:10070C0000F024FAD9220021782000F01FFA2222CE
:10071C000021782000F01AFADA220021782000F06B
:10072C0015FA12220021782000F010FADB220021A9
:10073C00782000F00BFA20220021782000F006FA35
:10074C008D220021782000F001FA1422002178205B
:10075C0000F0FCF9AF220021782000F0F7F92E22EE
:10076C000021782000F0F2F9002000F043F800F0AE
:10077C0013F8084B00221A80064B00225A80054BB6
:10078C0001225A71012318460837BD4680BD00BFAF
:10079C00300000202C07002080B582B000AF002371
:1007AC00FB711DE0FB79503BDBB21A46002178202F
:1007BC0000F0CCF900220021782000F0C7F91022BB
:1007CC000021782000F0C2F9FB79DB01084A1A44B9
:1007DC0080234021782000F053F9FB790133FB7121
:1007EC00FB79072BDED900BF00BF0837BD4680BDA3
:1007FC002C03002080B582B000AF0346FB71FB795F
:10080C00002B01D1002300E0FF234FF48062194636
:10081C00034802F09BFD00BF0837BD4680BD00BFFA
:10082C002C03002080B483B000AF0346FB800B4642
:10083C00BB801346FB70FB887F2B48D8BB883F2BB3
:10084C0045D8254B1B79002B06D0FB78002B0CBF11
:10085C0001230023DBB2FB70FB78012B1AD1FA8841
:10086C00BB88DB0898B20346DB0113441B4AD35CFC
:10087C005AB2BB8803F00703012101FA03F35BB200
:10088C00134359B2FA880346DB011344C9B2134A25
:10089C00D1541DE0FA88BB88DB0898B20346DB0113
:1008AC0013440E4AD35C5AB2BB8803F007030121F0
:1008BC0001FA03F35BB2DB435BB2134059B2FA8823
:1008CC000346DB011344C9B2044AD15400E000BF13
:1008DC000C37BD4680BC70472C0700202C03002031
:1008EC0080B483B000AF03460A46FB801346BB803E
:1008FC00054AFB881380044ABB88538000BF0C3721
:10090C00BD4680BC704700BF2C07002080B586B068
:10091C0000AF03463960FB711346BB713A4B1B8821
:10092C001A463B681B7813447F2B07DC364B5B88DD
:10093C001A463B685B7813443F2B01DD00235EE0D5
:10094C0000237B614BE03B685A68FB79203B39689C
:10095C00497801FB03F319467B690B445B00134494
:10096C001B88FB6000233B6130E0FA683B6902FAAC
:10097C0003F303F40043002B10D0234B1A883B697C
:10098C009BB2134498B2204B5A887B699BB2134498
:10099C009BB2BA791946FFF745FF14E01A4B1A8837
:1009AC003B699BB2134498B2174B5A887B699BB234
:1009BC00134499B2BB79002B0CBF01230023DBB28B
:1009CC001A46FFF72FFF3B6901333B613B681B78ED
:1009DC001A463B699342C8D37B6901337B613B6800
:1009EC005B781A467B699342ADD3074B1A883B68F8
:1009FC001B789BB213449AB2034B1A80FB791846AE
:100A0C001837BD4680BD00BF2C07002080B584B0D0
:100A1C0000AFF860B9601346FB7112E0FB681B78FD
:100A2C00FA79B9681846FFF771FF03461A46FB6856
:100A3C001B789A4202D0FB681B7808E0FB680133F4
:100A4C00FB60FB681B78002BE8D1FB681B78184611
:100A5C001037BD4680BD000080B483B000AF074B9B
:100A6C007B6002E07B68013B7B607B68002BF9D1EB
:100A7C0000BF00BF0C37BD4680BC704790D0030050
:100A8C0090B5C7B002AF0446084607F58871A1F5CA
:100A9C0088710A60194607F58873A3F20913224678
:100AAC001A7007F58873A3F5857302461A7007F55B
:100ABC008873A3F586730A461A8007F58873A3F525
:100ACC00827307F58872A2F5857212781A7000236A
:100ADC0087F80F3115E097F80F3107F58872A2F5FA
:100AEC00887212681A4497F80F310133117807F5A0
:100AFC008872A2F58272D15497F80F31013387F8BE
:100B0C000F3197F80F319BB207F58872A2F58672F8
:100B1C0012889A42DFD807F58873A3F209131B7861
:100B2C0099B207F58873A3F586731B8801339BB2C2
:100B3C0007F10C020A200090034801F005F800BFF1
:100B4C0007F58A77BD4690BD3000002080B586B091
:100B5C0002AF0346FB710B46BB7113467B71BB792D
:100B6C003B737B797B73FB7999B207F10C020A23F7
:100B7C0000930223034800F0E7FF00BF1037BD4687
:100B8C0080BD00BF3000002080B485B000AF154B95
:100B9C009B69144A43F001039361124B9B6903F068
:100BAC000103BB60BB680F4BDB690E4A43F08053FB
:100BBC00D3610C4BDB6903F080537B607B680A4B81
:100BCC005B68FB60FB6823F0E063FB60FB6843F051
:100BDC000073FB60044AFB68536000BF1437BD46CA
:100BEC0080BC7047001002400000014080B588B006
:100BFC0000AF786007F1100300221A605A609A6007
:100C0C00DA607B681B68154A934223D1144B9B69AD
:100C1C00134A43F008039361114B9B6903F00803DB
:100C2C00FB60FB68C0233B6112237B610323FB61E8
:100C3C0007F1100319460B4800F0A6FC084BDB69C2
:100C4C00074A43F40013D361054BDB6903F400132B
:100C5C00BB60BB6800BF2037BD4680BD0054004060
:100C6C0000100240000C014080B584B000AF7860E9
:100C7C007B681B681D4A934233D11D4B9B691C4AF0
:100C8C0043F4006393611A4B9B6903F40063FB60AC
:100C9C00FB68184B184A1A60164B10225A60154BF9
:100CAC0000229A60134B8022DA60124B4FF40072D0
:100CBC001A61104B4FF400625A610E4B20229A615C
:100CCC000C4B0022DA610B4800F08EFA0346002B25
:100CDC0001D0FFF797FC7B68064A1A62054A7B68CD
:100CEC00536200BF1037BD4680BD00BF002C0140D1
:100CFC0000100240CC0000205800024080B58AB0A1
:100D0C0000AF786007F1180300221A605A609A60ED
:100D1C00DA607B681B68374A934232D1364B9B6949
:100D2C00354A43F480439361334B9B6903F480430E
:100D3C007B617B69304B9B692F4A43F004039361C1
:100D4C002D4B9B6903F004033B613B694FF400732B
:100D5C00BB610223FB6103237B6207F11803194675
:100D6C00264800F011FC4FF48063BB610023FB614B
:100D7C0000233B6207F118031946204800F004FCDD
:100D8C0034E07B681B681E4A93422FD11A4BDB69F7
:100D9C00194A43F40033D361174BDB6903F4003376
:100DAC00FB60FB68144B9B69134A43F0040393618B
:100DBC00114B9B6903F00403BB60BB680423BB614C
:100DCC000223FB6103237B6207F1180319460B48CE
:100DDC0000F0DAFB0823BB610023FB6100233B62BC
:100DEC0007F118031946054800F0CEFB00BF283761
:100DFC00BD4680BD00380140001002400008014093
:100E0C000044004080B400AFFEE780B400AFFEE7C2
:100E1C0080B400AFFEE780B400AFFEE780B400AF53
:100E2C00FEE780B400AF00BFBD4680BC704780B405
:100E3C0000AF00BFBD4680BC704780B400AF00BFA0
:100E4C00BD4680BC704780B500AF00F07FF800BF96
:100E5C0080BD000080B500AF024800F061FA00BF11
:100E6C0080BD00BFCC00002080B400AF00BFBD46E9
:100E7C0080BC70470C480D490D4A002302E0D45841
:100E8C00C4500433C4188C42F9D30A4A0A4C0023C8
:100E9C0001E013600432A242FBD3FFF7E5FF02F03E
:100EAC0031FAFFF7B7F9704700000020140000205A
:100EBC00144100081400002038070020FEE7000051
:100ECC0080B500AF084B1B68074A43F01003136052
:100EDC00032000F047F90F2000F008F8FFF754FE4C
:100EEC000023184680BD00BF0020024080B582B0B0
:100EFC0000AF7860124B1A68124B1B7819464FF4EE
:100F0C007A73B3FBF1F3B2FBF3F3184600F05FF91D
:100F1C000346002B01D001230EE07B680F2B0AD86F
:100F2C00002279684FF0FF3000F027F9064A7B6801
:100F3C001360002300E0012318460837BD4680BD2E
:100F4C0008000020100000200C00002080B400AF2E
:100F5C00054B1B781A46054B1B681344034A136058
:100F6C0000BFBD4680BC7047100000203407002035
:100F7C0080B400AF024B1B681846BD4680BC70475E
:100F8C003407002080B584B000AF7860FFF7F0FF25
:100F9C00B8607B68FB60FB68B3F1FF3F05D00A4B80
:100FAC001B781A46FB681344FB6000BFFFF7E0FF99
:100FBC000246BB68D31AFA689A42F7D800BF00BF42
:100FCC001037BD4680BD00BF1000002080B485B036
:100FDC0000AF78607B6803F00703FB600C4BDB68A9
:100FEC00BB60BA684FF6FF031340BB60FB681A0284
:100FFC00BB68134343F0BF6343F40033BB60044A44
:10100C00BB68D36000BF1437BD4680BC704700BFBF
:10101C0000ED00E080B400AF044BDB681B0A03F06A
:10102C0007031846BD4680BC704700BF00ED00E0CA
:10103C0080B483B000AF0346FB7197F90730002BE7
:10104C000BDBFB7903F01F02064997F907305B09AC
:10105C00012000FA02F241F8232000BF0C37BD46F4
:10106C0080BC704700E100E080B483B000AF034661
:10107C003960FB7197F90730002B0ADB3B68DAB259
:10108C000C4997F907301201D2B20B4483F80023B4
:10109C000AE03B68DAB20849FB7903F00F03043B22
:1010AC001201D2B20B441A7600BF0C37BD4680BC7D
:1010BC00704700BF00E100E000ED00E080B489B0B3
:1010CC0000AFF860B9607A60FB6803F00703FB615E
:1010DC00FB69C3F10703042B28BF0423BB61FB6925
:1010EC000433062B02D9FB69033B00E000237B6130
:1010FC004FF0FF32BB6902FA03F3DA43BB681A40C4
:10110C007B699A404FF0FF317B6901FA03F3D943B5
:10111C007B680B40134318462437BD4680BC704790
:10112C0080B582B000AF78607B68013BB3F1807F03
:10113C0001D301230FE00A4A7B68013B53600F2166
:10114C004FF0FF30FFF790FF054B00229A60044BE5
:10115C0007221A60002318460837BD4680BD00BF21
:10116C0010E000E080B582B000AF78607868FFF7DF
:10117C002DFF00BF0837BD4680BD80B586B000AFDF
:10118C000346B9607A60FB7300237B61FFF742FF73
:10119C0078617A68B9687869FFF790FF024697F929
:1011AC000F3011461846FFF75FFF00BF1837BD46DA
:1011BC0080BD80B582B000AF0346FB7197F9073054
:1011CC001846FFF735FF00BF0837BD4680BD80B518
:1011DC0082B000AF78607868FFF7A2FF034618462C
:1011EC000837BD4680BD000080B485B000AF786084
:1011FC000023FB607B68002B01D1012343E07B685B
:10120C001B681A46224B1344224AA2FB03231B09D8
:10121C009A007B681A647B681F4ADA637B68022237
:10122C0083F821207B681B681B68FB60FB6823F438
:10123C007F5323F03003FB607B685A687B689B68A4
:10124C001A437B68DB681A437B681B691A437B680B
:10125C005B691A437B689B691A437B68DB691343A0
:10126C00FA681343FB607B681B68FA681A607B683A
:10127C0000229A637B68012283F821207B6800227C
:10128C0083F82020002318461437BD4680BC7047D5
:10129C00F8FFFDBFCDCCCCCC0000024080B586B0B1
:1012AC0000AFF860B9607A603B600023FB75FB68A7
:1012BC0093F82030012B01D102232DE0FB68012291
:1012CC0083F82020FB6893F82130012B1DD1FB689B
:1012DC00022283F82120FB6800229A63FB681B68BA
:1012EC001A68FB681B6822F001021A603B687A6876
:1012FC00B968F86800F01AF9FB681B681A68FB6893
:10130C001B6842F001021A6005E0FB68002283F8BA
:10131C0020200223FB75FB7D18461837BD4680BD87
:10132C0080B584B000AF78607B68DB6B1B68FB60BA
:10133C007B681B681B68BB607B681B6C04229A4033
:10134C00FB681340002B4FD0BB6803F00403002B49
:10135C004AD07B681B681B6803F02003002B07D165
:10136C007B681B681A687B681B6822F004021A6091
:10137C007B681B68664A934229D07B681B68654A68
:10138C00934222D07B681B68634A93421AD07B68D5
:10139C001B68624A934212D07B681B68604A934276
:1013AC000AD07B681B685F4A934202D14FF48003DA
:1013BC000EE04FF080630BE04FF4802308E04FF415
:1013CC00804305E04FF4806302E0402300E00423F7
:1013DC00554A53607B68DB6A002B00F094807B6875
:1013EC00DB6A786898478EE07B681B6C02229A4017
:1013FC00FB681340002B56D0BB6803F00203002B94
:10140C0051D07B681B681B6803F02003002B0BD1A9
:10141C007B681B681A687B681B6822F00A021A60DA
:10142C007B68012283F821207B681B68384A934231
:10143C0029D07B681B68374A934222D07B681B6893
:10144C00354A93421AD07B681B68344A934212D0B7
:10145C007B681B68324A93420AD07B681B68314A0E
:10146C00934202D14FF400130EE04FF000730BE0E7
:10147C004FF4003308E04FF4005305E04FF40073D1
:10148C0002E0202300E00223274A53607B680022FD
:10149C0083F820207B689B6A002B34D07B689B6A86
:1014AC00786898472FE07B681B6C08229A40FB6891
:1014BC001340002B28D0BB6803F00803002B23D06B
:1014CC007B681B681A687B681B6822F00E021A6026
:1014DC007B681A6C7B68DB6B012101FA02F25A60A3
:1014EC007B6801229A637B68012283F821207B6848
:1014FC00002283F820207B681B6B002B04D07B68B8
:10150C001B6B7868984700BF00BF1037BD4680BD85
:10151C00080002401C00024030000240440002401F
:10152C00580002406C0002400000024080B485B0BC
:10153C0000AFF860B9607A603B60FB681A6CFB68BE
:10154C00DB6B012101FA02F25A60FB681B683A68F6
:10155C005A60FB685B68102B08D1FB681B687A68C3
:10156C009A60FB681B68BA68DA6007E0FB681B6866
:10157C00BA689A60FB681B687A68DA6000BF143737
:10158C00BD4680BC7047000080B48BB000AF786063
:10159C00396000237B6200233B6269E101227B6A94
:1015AC0002FA03F3FB613B681B68FA691340BB61E9
:1015BC00BA69FB699A4240F058813B685B689A4A69
:1015CC0093425ED0984A934275D8984A934258D029
:1015DC00964A93426FD8964A934252D0944A934279
:1015EC0069D8944A93424CD0924A934263D8924A17
:1015FC00934246D0904A93425DD8122B2AD8122B94
:10160C0059D801A252F823F08F1600086916000869
:10161C007B160008BD160008C3160008C316000888
:10162C00C3160008C3160008C3160008C31600082A
:10163C00C3160008C3160008C3160008C31600081A
:10164C00C3160008C3160008C3160008711600085C
:10165C0085160008794A934213D02CE03B68DB686E
:10166C003B6229E03B68DB6804333B6224E03B6867
:10167C00DB6808333B621FE03B68DB680C333B6282
:10168C001AE03B689B68002B02D104233B6213E0F9
:10169C003B689B68012B05D108233B627B68FA6988
:1016AC001A6109E008233B627B68FA695A6103E01E
:1016BC0000233B6200E000BFBB69FF2B01D87B68B5
:1016CC0001E07B6804337B61BB69FF2B02D87B6A2A
:1016DC009B0002E07B6A083B9B003B617B691A68BC
:1016EC000F213B6901FA03F3DB431A40396A3B696A
:1016FC0001FA03F31A437B691A603B685B6803F0D9
:10170C008053002B00F0B1804D4B9B694C4A43F049
:10171C00010393614A4B9B6903F00103BB60BB68F7
:10172C00484A7B6A9B08023352F82330FB607B6A81
:10173C0003F003039B000F2202FA03F3DB43FA6866
:10174C001340FB607B68404A934213D07B683F4A4E
:10175C0093420DD07B683E4A934207D07B683D4A4A
:10176C00934201D1032306E0042304E0022302E0A8
:10177C00012300E000237A6A02F0030292009340F6
:10178C00FA681343FB602F497B6A9B080233FA68A3
:10179C0041F823203B685B6803F48033002B06D0B0
:1017AC002D4B1A682C49BB6913430B6006E02A4B7E
:1017BC001A68BB69DB43284913400B603B685B68C4
:1017CC0003F40033002B06D0234B5A682249BB6923
:1017DC0013434B6006E0204B5A68BB69DB431E4940
:1017EC0013404B603B685B6803F48013002B06D0FE
:1017FC00194B9A681849BB6913438B6006E0164B6A
:10180C009A68BB69DB43144913408B603B685B6887
:10181C0003F40013002B21D00F4BDA680E49BB697F
:10182C001343CB6021E000BF0000321000003110E8
:10183C0000002210000021100000121000001110F6
:10184C00001002400000014000080140000C014063
:10185C000010014000140140000401400B4BDA68F9
:10186C00BB69DB4309491340CB607B6A01337B6264
:10187C003B681A687B6A22FA03F3002B7FF48EAE66
:10188C0000BF00BF2C37BD4680BC70470004014030
:10189C0080B483B000AF78600B467B8013467B70BE
:1018AC007B78002B03D07A887B681A6103E07B88F5
:1018BC001A047B681A6100BF0C37BD4680BC7047A8
:1018CC0080B584B000AF78607B68002B01D1012318
:1018DC002BE17B6893F83D30DBB2002B06D17B68A3
:1018EC00002283F83C207868FFF780F97B6824227B
:1018FC0083F83D207B681B681A687B681B6822F0A4
:10190C0001021A607B681B681A687B681B6842F4CA
:10191C0000421A607B681B681A687B681B6822F49B
:10192C0000421A6001F018F9F8607B685B68814A24
:10193C00934207D8FB68804A934294BF012300234B
:10194C00DBB206E0FB687D4A934294BF012300237F
:10195C00DBB2002B01D00123E7E0FB68784AA2FB45
:10196C0003239B0CBB607B681B685B6823F03F0107
:10197C007B681B68BA680A435A607B681B681B6AE1
:10198C0023F03F017B685B686A4A934202D8BB68CC
:10199C00013309E0BB684FF4967202FB03F3694A0A
:1019AC00A2FB03239B0901337A6812680B43136271
:1019BC007B681B68DB6923F44F4222F0FF027B68D3
:1019CC005B685C498B4219D8FB68591E7B685B6865
:1019DC005B00B1FBF3F3591C40F6FC730B40002B7E
:1019EC000AD0FB68591E7B685B685B00B1FBF3F3A4
:1019FC000133C3F30B0351E004234FE07B689B6876
:101A0C00002B11D1FB68581E7B6859680B465B0094
:101A1C000B44B0FBF3F30133C3F30B03002B0CBFEC
:101A2C0001230023DBB212E0FB68581E7B68596867
:101A3C000B469B000B4499000B44B0FBF3F30133B2
:101A4C00C3F30B03002B0CBF01230023DBB2002BD1
:101A5C0001D0012322E07B689B68002B0ED1FB6830
:101A6C00581E7B6859680B465B000B44B0FBF3F3C4
:101A7C000133C3F30B0343F400430FE0FB68581E20
:101A8C007B6859680B469B000B4499000B44B0FBD8
:101A9C00F3F30133C3F30B0343F440437968096850
:101AAC001343CB617B681B681B6823F0C0017B6808
:101ABC00DA697B681B6A1A437B681B680A431A60E5
:101ACC007B681B689B6823F4034323F0FF037A684D
:101ADC0011697A68D26811437A6812680B43936073
:101AEC007B681B68DB6823F0FF017B685A697B68A5
:101AFC009B691A437B681B680A43DA607B681B6826
:101B0C001A687B681B6842F001021A607B6800222D
:101B1C001A647B68202283F83D207B6800221A63BC
:101B2C007B68002283F83E20002318461037BD4600
:101B3C0080BD00BFA08601007F841E00FF083D0011
:101B4C0083DE1B43D34D621080B588B002AFF860C2
:101B5C007A601A460B467B8113463B81FFF708FAE5
:101B6C007861FB6893F83D30DBB2202B40F0E080CD
:101B7C007B690093192301227049F86800F092FAEE
:101B8C000346002B01D00223D3E0FB6893F83C30D2
:101B9C00012B01D10223CCE0FB68012283F83C200D
:101BAC00FB681B681B6803F00103012B07D0FB6863
:101BBC001B681A68FB681B6842F001021A60FB681C
:101BCC001B681A68FB681B6822F400621A60FB68C9
:101BDC00212283F83D20FB68102283F83E20FB680D
:101BEC0000221A64FB687A685A62FB683A895A8543
:101BFC00FB685B8D9AB2FB681A85FB68504ADA6207
:101C0C0079897B693A6AF86800F0CAF90346002BB7
:101C1C0001D001238DE000233B61FB681B685B69ED
:101C2C003B61FB681B689B693B613B6966E07A69B9
:101C3C00396AF86800F00CFB0346002B0DD0FB68EA
:101C4C001B6C042B07D1FB681B681A68FB681B68AC
:101C5C0042F400721A6001236BE0FB685B6A1A782D
:101C6C00FB681B681A61FB685B6A5A1CFB685A624A
:101C7C00FB685B8D9BB2013B9AB2FB685A85FB6893
:101C8C001B8D013B9AB2FB681A85FB681B685B696C
:101C9C0003F00403042B1BD1FB681B8D002B17D006
:101CAC00FB685B6A1A78FB681B681A61FB685B6AE5
:101CBC005A1CFB685A62FB685B8D9BB2013B9AB263
:101CCC00FB685A85FB681B8D013B9AB2FB681A8531
:101CDC007A69396AF86800F0FCFA0346002B0DD0DB
:101CEC00FB681B6C042B07D1FB681B681A68FB682C
:101CFC001B6842F400721A6001231AE0FB681B8D0A
:101D0C00002B94D1FB681B681A68FB681B6842F4B3
:101D1C0000721A60FB68202283F83D20FB680022C9
:101D2C0083F83E20FB68002283F83C20002300E06F
:101D3C00022318461837BD4680BD00BF02001000B4
:101D4C000000FFFF80B58AB002AFF8607A603B609C
:101D5C000B467B81FFF70CF9F8610123BB61FB6833
:101D6C0093F83D30DBB2202B40F01181FB690093DE
:101D7C00192301228849F86800F094F90346002BD6
:101D8C0001D0022304E1FB6893F83C30012B01D114
:101D9C000223FDE0FB68012283F83C20FB681B68F2
:101DAC001B6803F00103012B07D0FB681B681A6842
:101DBC00FB681B6842F001021A60FB681B681A681A
:101DCC00FB681B6822F400621A60FB68242283F80B
:101DDC003D20FB6800221A64FB68704ADA62FB68DB
:101DEC001B681A68FB681B6842F480721A60FB69F6
:101DFC0000933B6800224FF00111F86800F052F993
:101E0C000346002B0DD0FB681B681B6803F4807322
:101E1C00B3F5807F03D1FB684FF400721A6403237F
:101E2C00B6E07B89DBB21A46FB681B6802F0FE0247
:101E3C001A61FFF79DF8F861FB681B685B6903F09A
:101E4C000203022B0CBF01230023DBB2FB75FB68E2
:101E5C001B685B6903F48063B3F5806F0CBF0123CF
:101E6C000023DBB2BB7525E0FFF782F80246FB6965
:101E7C00D31A3A689A4202D33B68002B03D1FB6811
:101E8C00A02283F83D20FB681B685B6903F002030A
:101E9C00022B0CBF01230023DBB2FB75FB681B6814
:101EAC005B6903F48063B3F5806F0CBF01230023DF
:101EBC00DBB2BB75FB6893F83D30DBB2A02B05D0D1
:101ECC00FB7D002B02D1BB7D002BCDD0FB682022EB
:101EDC0083F83D20FB681B685B6903F00203022B4F
:101EEC0029D1FB681B681A68FB681B6842F40072F6
:101EFC001A6000233B61FB681B685B693B61FB68F4
:101F0C001B689B693B613B69FB69009319230122A8
:101F1C002149F86800F0C6F80346002B01D00123D4
:101F2C0036E0FB68202283F83D20FB68002283F812
:101F3C003C2000232CE0FB681B681A68FB681B68BC
:101F4C0042F400721A60FB681B686FF480625A617D
:101F5C00FB690093192301220F49F86800F0A2F8DD
:101F6C000346002B01D0012312E0BB690133BB6196
:101F7C00BA697B689A42FFF432AFFB68202283F87F
:101F8C003D20FB68002283F83C20012300E0022363
:101F9C0018462037BD4680BD020010000000FFFF30
:101FAC0080B588B002AFF8607A603B600B467B81ED
:101FBC00FB68DB6A7B617B69082B06D07B69012B94
:101FCC0003D07B6913F5803F08D1FB681B681A6846
:101FDC00FB681B6842F480721A600BE0FB681B6B99
:101FEC00122B07D1FB681B681A68FB681B6842F44C
:101FFC0080721A603B6800937B6800224FF00111DD
:10200C00F86800F04FF80346002B0DD0FB681B68F6
:10201C001B6803F48073B3F5807F03D1FB684FF426
:10202C0000721A64032335E0FB681B69B3F5804F1B
:10203C0008D17B89DBB21A46FB681B6802F0FE02F2
:10204C001A611BE07B89DB11DBB203F00603DBB208
:10205C0063F00F03DAB2FB681B681A613B687A689D
:10206C000E49F86800F075F80346002B01D00123E7
:10207C0010E07B89DAB2FB681B681A613B687A68EE
:10208C000749F86800F065F80346002B01D00123DE
:10209C0000E0002318461837BD4680BD080001003B
:1020AC000200010080B584B000AFF860B9603B60FD
:1020BC001346FB7125E03B68B3F1FF3F21D0FEF7DF
:1020CC0057FF0246BB69D31A3A689A4202D33B685F
:1020DC00002B16D1FB6800221A63FB68202283F8C0
:1020EC003D20FB68002283F83E20FB681B6C43F00C
:1020FC002002FB681A64FB68002283F83C20012351
:10210C0023E0BB681B0CDBB2012B0DD1FB681B68F9
:10211C005B69DA43BB6813409BB2002B0CBF0123F5
:10212C000023DBB21A460CE0FB681B689B69DA43A0
:10213C00BB6813409BB2002B0CBF01230023DBB206
:10214C001A46FB799A42B6D0002318461037BD4682
:10215C0080BD80B584B000AFF860B9607A603B6038
:10216C0051E0FB681B685B6903F48063B3F5806F17
:10217C0023D1FB681B681A68FB681B6842F4007269
:10218C001A60FB681B686FF480625A61FB6800225E
:10219C001A63FB68202283F83D20FB68002283F839
:1021AC003E20FB681B6C43F00402FB681A64FB685E
:1021BC00002283F83C20012346E07B68B3F1FF3F0B
:1021CC0021D0FEF7D5FE02463B68D31A7A689A42B4
:1021DC0002D37B68002B16D1FB6800221A63FB68C4
:1021EC00202283F83D20FB68002283F83E20FB6808
:1021FC001B6C43F02002FB681A64FB68002283F816
:10220C003C20012320E0BB681B0CDBB2012B0CD162
:10221C00FB681B685B69DA43BB6813409BB2002BFD
:10222C0014BF01230023DBB20BE0FB681B689B6926
:10223C00DA43BB6813409BB2002B14BF012300236D
:10224C00DBB2002B8DD1002318461037BD4680BD64
:10225C0080B584B000AFF860B9607A602DE0F868A2
:10226C0000F078F80346002B01D001232DE0BB6869
:10227C00B3F1FF3F21D0FEF77BFE02467B68D31AF9
:10228C00BA689A4202D3BB68002B16D1FB680022B5
:10229C001A63FB68202283F83D20FB68002283F838
:1022AC003E20FB681B6C43F02002FB681A64FB6841
:1022BC00002283F83C20012307E0FB681B685B6964
:1022CC0003F08003802BCAD1002318461037BD467B
:1022DC0080BD80B584B000AFF860B9607A602DE045
:1022EC00F86800F037F80346002B01D001232DE0ED
:1022FC00BB68B3F1FF3F21D0FEF73AFE02467B6884
:10230C00D31ABA689A4202D3BB68002B16D1FB6869
:10231C0000221A63FB68202283F83D20FB68002210
:10232C0083F83E20FB681B6C43F02002FB681A64A8
:10233C00FB68002283F83C20012307E0FB681B6844
:10234C005B6903F00403042BCAD100231846103731
:10235C00BD4680BD80B483B000AF78607B681B68DD
:10236C005B6903F48063B3F5806F1BD17B681B68DA
:10237C006FF480625A617B6800221A637B682022AA
:10238C0083F83D207B68002283F83E207B681B6C21
:10239C0043F004027B681A647B68002283F83C20BB
:1023AC00012300E0002318460C37BD4680BC704763
:1023BC0080B586B000AF78607B68002B01D101231B
:1023CC0072E27B681B6803F00103002B00F087802E
:1023DC00924B5B6803F00C03042B0CD08F4B5B68A7
:1023EC0003F00C03082B12D18C4B5B6803F4803385
:1023FC00B3F5803F0BD1894B1B6803F40033002BE2
:10240C006CD07B685B68002B68D101234CE27B6845
:10241C005B68B3F5803F06D1804B1B687F4A43F461
:10242C00803313602EE07B685B68002B0CD17B4BF8
:10243C001B687A4A23F480331360784B1B68774A05
:10244C0023F4802313601DE07B685B68B3F5A02F39
:10245C000CD1724B1B68714A43F4802313606F4B91
:10246C001B686E4A43F4803313600BE06B4B1B68A4
:10247C006A4A23F480331360684B1B68674A23F461
:10248C00802313607B685B68002B13D0FEF770FD14
:10249C00386108E0FEF76CFD02463B69D31A642BE9
:1024AC0001D9032300E25D4B1B6803F40033002BBE
:1024BC00F0D014E0FEF75CFD386108E0FEF758FD43
:1024CC0002463B69D31A642B01D90323ECE1534B2D
:1024DC001B6803F40033002BF0D100E000BF7B68D5
:1024EC001B6803F00203002B63D04C4B5B6803F0BA
:1024FC000C03002B0BD0494B5B6803F00C03082B2F
:10250C001CD1464B5B6803F48033002B16D1434B34
:10251C001B6803F00203002B05D07B681B69012BA1
:10252C0001D00123C0E13D4B1B6823F0F8027B680E
:10253C005B69DB00394913430B603AE07B681B692C
:10254C00002B20D0364B01221A60FEF711FD3861AA
:10255C0008E0FEF70DFD02463B69D31A022B01D9A8
:10256C000323A1E12D4B1B6803F00203002BF0D0D9
:10257C002A4B1B6823F0F8027B685B69DB00274958
:10258C0013430B6015E0264B00221A60FEF7F0FC9B
:10259C00386108E0FEF7ECFC02463B69D31A022BCB
:1025AC0001D9032380E11D4B1B6803F00203002BB0
:1025BC00F0D17B681B6803F00803002B3AD07B68D2
:1025CC009B69002B19D0174B01221A60FEF7D0FC27
:1025DC00386108E0FEF7CCFC02463B69D31A022BAB
:1025EC0001D9032360E10D4B5B6A03F00203002B5E
:1025FC00F0D0012000F0D8FA1CE00A4B00221A603F
:10260C00FEF7B6FC38610FE0FEF7B2FC02463B6900
:10261C00D31A022B08D9032346E100BF0010024055
:10262C000000424280044242924B5B6A03F0020378
:10263C00002BE9D17B681B6803F00403002B00F02E
:10264C00A6800023FB758B4BDB6903F08053002BBA
:10265C000DD1884BDB69874A43F08053D361854B9E
:10266C00DB6903F08053BB60BB680123FB75824BB5
:10267C001B6803F48073002B18D17F4B1B687E4AB8
:10268C0043F480731360FEF773FC386108E0FEF7C7
:10269C006FFC02463B69D31A642B01D9032303E177
:1026AC00754B1B6803F48073002BF0D07B68DB68E0
:1026BC00012B06D16F4B1B6A6E4A43F00103136268
:1026CC002DE07B68DB68002B0CD16A4B1B6A694AD6
:1026DC0023F001031362674B1B6A664A23F0040361
:1026EC0013621CE07B68DB68052B0CD1614B1B6A09
:1026FC00604A43F0040313625E4B1B6A5D4A43F06D
:10270C00010313620BE05B4B1B6A5A4A23F0010373
:10271C001362584B1B6A574A23F0040313627B68FD
:10272C00DB68002B15D0FEF723FC38610AE0FEF7BE
:10273C001FFC02463B69D31A41F28832934201D9FD
:10274C000323B1E04B4B1B6A03F00203002BEED0CA
:10275C0014E0FEF70DFC38610AE0FEF709FC0246B6
:10276C003B69D31A41F28832934201D903239BE08F
:10277C00404B1B6A03F00203002BEED1FB7D012BB7
:10278C0005D13C4BDB693B4A23F08053D3617B681A
:10279C00DB69002B00F08780364B5B6803F00C0381
:1027AC00082B61D07B68DB69022B46D1334B0022AE
:1027BC001A60FEF7DDFB386108E0FEF7D9FB024634
:1027CC003B69D31A022B01D903236DE0294B1B68FB
:1027DC0003F00073002BF0D17B681B6AB3F5803FCC
:1027EC0008D1244B5B6823F400327B689B68214939
:1027FC0013434B601F4B5B6823F474127B68196A9C
:10280C007B685B6A0B431B4913434B601B4B0122D8
:10281C001A60FEF7ADFB386108E0FEF7A9FB024633
:10282C003B69D31A022B01D903233DE0114B1B68E2
:10283C0003F00073002BF0D035E0104B00221A602F
:10284C00FEF796FB386108E0FEF792FB02463B6907
:10285C00D31A022B01D9032326E0064B1B6803F085
:10286C000073002BF0D11EE07B68DB69012B07D1D4
:10287C00012319E000100240007000406000424249
:10288C000B4B5B68FB60FB6803F480327B681B6A54
:10289C009A4206D1FB6803F470127B685B6A9A4219
:1028AC0001D0012300E0002318461837BD4680BD37
:1028BC000010024080B584B000AF786039607B684E
:1028CC00002B01D10123D0E06A4B1B6803F00703F6
:1028DC003A689A4210D9674B1B6823F00702654986
:1028EC003B6813430B60634B1B6803F007033A68A8
:1028FC009A4201D00123B8E07B681B6803F0020305
:10290C00002B20D07B681B6803F00403002B05D040
:10291C00594B5B68584A43F4E06353607B681B680F
:10292C0003F00803002B05D0534B5B68524A43F469
:10293C0060535360504B5B6823F0F0027B689B68DC
:10294C004D4913434B607B681B6803F00103002B5C
:10295C0040D07B685B68012B07D1474B1B6803F4A5
:10296C000033002B15D101237FE07B685B68022BC1
:10297C0007D1414B1B6803F00073002B09D10123D5
:10298C0073E03D4B1B6803F00203002B01D10123C4
:10299C006BE0394B5B6823F003027B685B6836495C
:1029AC0013434B60FEF7E4FAF8600AE0FEF7E0FA36
:1029BC000246FB68D31A41F28832934201D90323B1
:1029CC0053E02D4B5B6803F00C027B685B689B004B
:1029DC009A42EBD1274B1B6803F007033A689A42E3
:1029EC0010D2244B1B6823F0070222493B68134387
:1029FC000B60204B1B6803F007033A689A4201D026
:102A0C00012332E07B681B6803F00403002B08D021
:102A1C00194B5B6823F4E0627B68DB68164913434F
:102A2C004B607B681B6803F00803002B09D0124B2A
:102A3C005B6823F460527B681B69DB000E4913430F
:102A4C004B6000F021F802460B4B5B681B0903F04E
:102A5C000F030A49CB5C22FA03F3094A1360094BB2
:102A6C001B681846FEF742FA002318461037BD467D
:102A7C0080BD00BF0020024000100240F44000085E
:102A8C00080000200C00002090B48AB000AF294B45
:102A9C003C1D0FCB84E80F0040F201233B80002348
:102AAC00FB610023BB6100237B6200237B6100235D
:102ABC003B62214B5B68FB61FB6903F00C03042B4D
:102ACC0002D0082B03D02BE01C4B3B622BE0FB69A4
:102ADC009B0C03F00F0328333B4413F8243C7B611D
:102AEC00FB6903F48033002B12D0134B5B685B0C37
:102AFC0003F0010328333B4413F8283CBB617B698A
:102B0C000E4A03FB02F2BB69B2FBF3F37B6204E0F7
:102B1C007B690B4A02FB03F37B627B6A3B6202E03C
:102B2C00064B3B6200BF3B6A18462837BD4690BC3B
:102B3C00704700BF883300080010024000127A0072
:102B4C0000093D0080B400AF024B1B681846BD461F
:102B5C0080BC70470800002080B500AFFFF7F2FF83
:102B6C000246054B5B681B0A03F007030349CB5C69
:102B7C0022FA03F3184680BD0010024004410008FD
:102B8C0080B500AFFFF7DEFF0246054B5B68DB0A42
:102B9C0003F007030349CB5C22FA03F3184680BD0C
:102BAC00001002400441000880B485B000AF78608A
:102BBC000A4B1B680A4AA2FB03235B0A7A6802FBD6
:102BCC0003F3FB6000BFFB685A1EFA60002BF9D1BF
:102BDC0000BF00BF1437BD4680BC70470800002002
:102BEC00D34D621080B582B000AF78607B68002B4B
:102BFC0001D1012341E07B6893F83D30DBB2002B1F
:102C0C0006D17B68002283F83C207868FEF72CF80C
:102C1C007B68022283F83D207B681A687B6804334A
:102C2C001946104600F03CF97B68012283F84620D7
:102C3C007B68012283F83E207B68012283F83F20C9
:102C4C007B68012283F840207B68012283F84120B5
:102C5C007B68012283F842207B68012283F84320A1
:102C6C007B68012283F844207B68012283F845208D
:102C7C007B68012283F83D20002318460837BD46A7
:102C8C0080BD000080B485B000AF78607B6893F89D
:102C9C003D30DBB2012B01D0012332E07B680222F4
:102CAC0083F83D207B681B68184A93420ED07B68E2
:102CBC001B68B3F1804F09D07B681B68144A9342A0
:102CCC0004D07B681B68134A934211D17B681B6844
:102CDC009B6803F00703FB60FB68062B10D07B6836
:102CEC001B681A687B681B6842F001021A6007E0D7
:102CFC007B681B681A687B681B6842F001021A60CB
:102D0C00002318461437BD4680BC7047002C014088
:102D1C00000400400008004080B584B000AF78602B
:102D2C0039607B6893F83C30012B01D10223B3E06E
:102D3C007B68012283F83C207B68022283F83D20CB
:102D4C007B681B689B68FB60FB6823F07703FB6068
:102D5C00FB6823F47F43FB607B681B68FA689A600E
:102D6C003B681B68B3F5005F3ED0B3F5005F00F223
:102D7C008780B3F5805F00F08580B3F5805F7FD8E6
:102D8C00702B1AD0702B7BD8602B50D0602B77D83F
:102D9C00502B3CD0502B73D8402B58D0402B6FD895
:102DAC00302B64D0302B6BD8202B60D0202B67D8E5
:102DBC00002B5CD0102B5AD062E07B6818683B6803
:102DCC0099683B685A683B68DB6800F042F97B689D
:102DDC001B689B68FB60FB6843F07703FB607B68B8
:102DEC001B68FA689A604EE07B6818683B689968C3
:102DFC003B685A683B68DB6800F02BF97B681B6802
:102E0C009A687B681B6842F480429A603BE07B685E
:102E1C0018683B6859683B68DB681A4600F0A2F8F2
:102E2C007B681B685021184600F0F9F82BE07B6892
:102E3C0018683B6859683B68DB681A4600F0C0F8B4
:102E4C007B681B686021184600F0E9F81BE07B6882
:102E5C0018683B6859683B68DB681A4600F082F8D2
:102E6C007B681B684021184600F0D9F80BE07B68A2
:102E7C001A683B681B681946104600F0D0F802E04F
:102E8C0000BF00E000BF7B68012283F83D207B6817
:102E9C00002283F83C20002318461037BD4680BD25
:102EAC0080B485B000AF786039607B681B68FB60CC
:102EBC007B68294A93420BD07B68B3F1804F07D0D3
:102ECC007B68264A934203D07B68254A934208D1FB
:102EDC00FB6823F07003FB603B685B68FA68134384
:102EEC00FB607B681C4A93420BD07B68B3F1804F2C
:102EFC0007D07B68194A934203D07B68184A9342E7
:102F0C0008D1FB6823F44073FB603B68DB68FA680C
:102F1C001343FB60FB6823F080023B685B6913433F
:102F2C00FB607B68FA681A603B689A687B68DA62B7
:102F3C003B681A687B689A627B68074A934203D1A4
:102F4C003B681A697B681A637B6801225A6100BF6F
:102F5C001437BD4680BC7047002C01400004004073
:102F6C000008004080B487B000AFF860B9607A60A8
:102F7C00FB681B6A7B61FB681B6A23F00102FB6820
:102F8C001A62FB689B693B613B6923F0F0033B6170
:102F9C007B681B013A6913433B617B6923F00A038D
:102FAC007B617A69BB6813437B61FB683A699A6100
:102FBC00FB687A691A6200BF1C37BD4680BC70473B
:102FCC0080B487B000AFF860B9607A60FB681B6AA8
:102FDC0023F01002FB681A62FB689B697B61FB683B
:102FEC001B6A3B617B6923F470437B617B681B0329
:102FFC007A6913437B613B6923F0A0033B61BB6897
:10300C001B013A6913433B61FB687A699A61FB685F
:10301C003A691A6200BF1C37BD4680BC704780B449
:10302C0085B000AF786039607B689B68FB60FB689B
:10303C0023F07003FB603A68FB68134343F007030B
:10304C00FB607B68FA689A6000BF1437BD4680BC91
:10305C00704780B487B000AFF860B9607A603B60AD
:10306C00FB689B687B617B6923F47F437B613B68D6
:10307C001A027B681A43BB6813437A6913437B615A
:10308C00FB687A699A6000BF1C37BD4680BC7047EC
:10309C0080B485B000AF786039607B6893F83C30C1
:1030AC00012B01D1022346E07B68012283F83C20EE
:1030BC007B68022283F83D207B681B685B68FB60A1
:1030CC007B681B689B68BB60FB6823F07003FB602C
:1030DC003B681B68FA681343FB607B681B68FA68E3
:1030EC005A607B681B68164A93420ED07B681B683B
:1030FC00B3F1804F09D07B681B68124A934204D00D
:10310C007B681B68104A93420CD1BB6823F0800388
:10311C00BB603B685B68BA681343BB607B681B6829
:10312C00BA689A607B68012283F83D207B68002294
:10313C0083F83C20002318461437BD4680BC7047EA
:10314C00002C0140000400400008004080B582B013
:10315C0000AF78607B68002B01D101233FE07B68D6
:10316C0093F83D30DBB2002B06D17B68002283F84C
:10317C003C207868FDF7C2FD7B68242283F83D2053
:10318C007B681B68DA687B681B6822F40052DA6083
:10319C00786800F029F87B681B681A697B681B68E3
:1031AC0022F490421A617B681B685A697B681B6821
:1031BC0022F02A025A617B681B68DA687B681B68FC
:1031CC0042F40052DA607B6800221A647B68202289
:1031DC0083F83D207B68202283F83E20002318468C
:1031EC000837BD4680BD000080B584B000AF786064
:1031FC007B681B681B6923F440517B68DA687B6829
:10320C001B680A431A617B689A687B681B691A43BE
:10321C007B685B691343BB607B681B68DB6823F4CA
:10322C00B05323F00C037A681268B9680B43D3606F
:10323C007B681B685B6923F440717B689A697B68C7
:10324C001B680A435A617B681B682C4A934203D162
:10325C00FFF796FCF86002E0FFF77EFCF860FA6876
:10326C0013469B0013449A001A447B685B689B00CE
:10327C00B2FBF3F3224AA2FB03235B091901FA68A0
:10328C0013469B0013449A001A447B685B689B00AE
:10329C00B2FBF3F21A4BA3FB02035B09642000FBA5
:1032AC0003F3D31A1B013233154AA2FB03235B0928
:1032BC0003F0F0031944FA6813469B0013449A0078
:1032CC001A447B685B689B00B2FBF3F20C4BA3FBCC
:1032DC0002035B09642000FB03F3D31A1B01323396
:1032EC00074AA2FB03235B0903F00F027B681B68F0
:1032FC000A449A6000BF1037BD4680BD00380140BB
:10330C001F85EB5170B500260C4D0D4C641BA410A1
:10331C00A64209D100F022F800260A4D0A4C641B83
:10332C00A410A64205D170BD55F8043B9847013650
:10333C00EEE755F8043B98470136F2E70C410008DC
:10334C000C4100080C4100081041000803460244DF
:10335C00934200D1704703F8011BF9E7F8B500BFA1
:10336C00F8BC08BC9E467047F8B500BFF8BC08BC5A
:04337C009E467047B2
:10338000696E69740000000002030405060708095D
:103390000A0B0C0D0E0F10100000000000000000C2
:1033A000000000000000000000000000000000001D
:1033B0000000000000000000000000000000000C01
:1033C000000C000C000C000C000C000C000C000C9D
:1033D000000C000C0000000C000C000000000000BD
:1033E0000000001B001B001B001B001B0000000056
:1033F00000000000000000000000000000000000CD
:103400000000000000008019801980198019C07F19
:10341000C07F80190033C07FC07F0033003300338A
:1034200000330000000000000000001E003F807517
:1034300080650074003C001E000780058065806583
:103440008075003F001E00040004000000000070B2
:1034500000D840D8C0D880D900730006000C801B6B
:10346000C036C066C046C0068003000000000000F1
:103470000000001E003F003300330033001E000C2C
:10348000C03CC066806380618063C03E801C0000D9
:10349000000000000000000C000C000C000C000CF0
:1034A000000000000000000000000000000000001C
:1034B0000000000000000000800000010003000682
:1034C00000060004000C000C000C000C000C000CAA
:1034D0000004000600060003000180000020001028
:1034E0000018000C000C0004000600060006000690
:1034F000000600060004000C000C0018001000205C
:103500000000000C002D003F001E003300000000F2
:1035100000000000000000000000000000000000AB
:1035200000000000000000000000000C000C000C77
:10353000000CC0FFC0FF000C000C000C000C0000D1
:10354000000000000000000000000000000000007B
:10355000000000000000000000000000000000006B
:103560000000000C000C0004000400080000000033
:103570000000000000000000000000000000001E2D
:10358000001E00000000000000000000000000001D
:10359000000000000000000000000000000000002B
:1035A00000000000000000000000000C000C000003
:1035B00000000000000000030003000300060006F6
:1035C00000060006000C000C000C000C001800188F
:1035D00000180000000000000000001E003F003343
:1035E000806180618061806D806D806180618061BB
:1035F0000033003F001E0000000000000000000635
:10360000000E001E0036002600060006000600061A
:10361000000600060006000600060000000000008C
:103620000000001E003F8073806180618001000304
:103630000006000C001800300060807F807F0000D2
:10364000000000000000001C003E00630063000357
:10365000000E000E00038001800180618073003F36
:10366000001E00000000000000000006000E000E1A
:10367000001E001E0016003600360066807F807F28
:103680000006000600060000000000000000007FA9
:10369000007F006000600060006E007F806380013A
:1036A000800180618073003F001E00000000000068
:1036B0000000001E003F803380610060006E007FCC
:1036C00080738061806180618033003F001E000054
:1036D000000000000000807F807F80010003000365
:1036E00000060006000C000C000C00080018001872
:1036F00000180000000000000000001E003F806372
:10370000806180610021001E003F806180618061D6
:103710008061003F001E0000000000000000001E4D
:10372000003F00738061806180618073803F801DF5
:10373000800180610073003F001E00000000000057
:1037400000000000000000000000000C000C000061
:1037500000000000000000000000000C000C000051
:103760000000000000000000000000000000000059
:10377000000C000C00000000000000000000000C25
:10378000000C00040004000800000000000000001D
:1037900080008003000E003800600038000E8003B7
:1037A0008000000000000000000000000000000099
:1037B000000000000000807F807F00000000807F0C
:1037C000807F0000000000000000000000000000FA
:1037D000000000000000000000400070001C000716
:1037E00080010007001C0070004000000000000085
:1037F000000000000000001F803FC071C060C000DA
:10380000C00180030007000E000C000C0000000C3B
:10381000000C0000000000000000001E003F80318E
:1038200080718063806F806D806D806F80670060C5
:103830000032003E001C0000000000000000000EEE
:10384000000E001B001B001B001B80318031803FDD
:10385000803F8031C060C060C06000000000000098
:103860000000007C007E0063006300630063007E54
:10387000007E0063806180618063007F007E0000C5
:10388000000000000000001E003F803180610060E9
:103890000060006000600060006080618031003F77
:1038A000001E0000000000000000007C007F00639C
:1038B000806380618061806180618061806100637C
:1038C0000063007E007C0000000000000000807F9C
:1038D000807F0060006000600060007F007F00600B
:1038E000006000600060807F807F000000000000BA
:1038F0000000807F807F0060006000600060007FCB
:10390000007F0060006000600060006000600000F8
:10391000000000000000001E003F80318061006058
:103920000060006080638063806180618031803FDF
:10393000001E0000000000000000806180618061C6
:10394000806180618061807F807F80618061806133
:103950008061806180610000000000000000003F85
:10396000003F000C000C000C000C000C000C000CC4
:10397000000C000C000C003F003F000000000000A5
:1039800000008001800180018001800180018001B0
:1039900080018001806180618073003F001E000013
:1039A000000000000000C0608061006300660066E7
:1039B000006C0078007C00660066006380618061B6
:1039C000C0600000000000000000006000600060B7
:1039D00000600060006000600060006000600060E7
:1039E0000060807F807F0000000000000000C07148
:1039F000C071C07BC07AC06AC06AC06EC064C0605B
:103A0000C060C060C060C060C06000000000000016
:103A1000000080718071807980798079806D806DFF
:103A2000806D806580678067806780638063000049
:103A3000000000000000001E003F00338061806134
:103A40008061806180618061806180610033003FBE
:103A5000001E0000000000000000007E007F806368
:103A60008061806180618063007F007E0060006013
:103A70000060006000600000000000000000001E08
:103A8000003F00338061806180618061806180617E
:103A9000806580670033803F401E0000000000000A
:103AA0000000007E007F8063806180618063007F12
:103AB000007E00660063006380618061C06000007A
:103AC000000000000000000E001F80318031003037
:103AD0000038001E00078003806180618031003F54
:103AE000001E0000000000000000C0FFC0FF000C2E
:103AF000000C000C000C000C000C000C000C000C66
:103B0000000C000C000C00000000000000008061B0
:103B1000806180618061806180618061806180619D
:103B2000806180618073003F001E00000000000083
:103B30000000C060C060C060803180318031001BF7
:103B4000001B001B001B000E000E000E00040000F6
:103B5000000000000000C0C0C0C0C0C0C0C0C0C0E5
:103B6000C0CC804C804C805E8052805280738061DB
:103B700080610000000000000000C0C08060806123
:103B80000033003B001E000C000C001E001F003B19
:103B900080718061C0C00000000000000000C0C053
:103BA0008061806100330033001E001E000C000C99
:103BB000000C000C000C000C000C000000000000C9
:103BC0000000803F803F8001000300030006000CDE
:103BD000000C0018001800300060807F807F00001B
:103BE00000000000000F000F000C000C000C000C87
:103BF000000C000C000C000C000C000C000C000C65
:103C0000000C000C000F000F000000180018001836
:103C1000000C000C000C000C00060006000600065C
:103C2000000300030003000000000000001E001E4F
:103C30000006000600060006000600060006000654
:103C4000000600060006000600060006001E001E14
:103C50000000000C000C001E0012003300338061D5
:103C60008061000000000000000000000000000073
:103C70000000000000000000000000000000000044
:103C80000000000000000000000000000000000034
:103C900000000000E0FF0000000000380018000CE9
:103CA0000000000000000000000000000000000014
:103CB0000000000000000000000000000000000004
:103CC000000000000000001F803F80618001801F15
:103CD000803F80618063807FC0380000000000006A
:103CE00000000060006000600060006E007F807374
:103CF00080618061806180618073007F006E000060
:103D00000000000000000000000000000000001E95
:103D1000003F807380610060006080618073003FBD
:103D2000001E0000000000000000800180018001F2
:103D30008001801D803F807380618061806180612F
:103D40008073803F801D0000000000000000000024
:103D5000000000000000001E003F00738061807FB3
:103D6000807F00608071003F001E000000000000A6
:103D70000000C007C00F000C000C807F807F000C8B
:103D8000000C000C000C000C000C000C000C0000DF
:103D9000000000000000000000000000801D803FC7
:103DA000807380618061806180618073803F801D4D
:103DB00080018063007F003E0000006000600060C2
:103DC0000060006F807F80718061806180618061B0
:103DD000806180618061000000000000000000063A
:103DE000000600000000003E003E0006000600063F
:103DF00000060006000600060006000000000000A5
:103E00000006000600000000003E003E000600061E
:103E10000006000600060006000600060006004632
:103E2000007E003C00000060006000600060806177
:103E300000630066006C007C0076006300638061B4
:103E4000C0600000000000000000003E003E0006D0
:103E50000006000600060006000600060006000632
:103E60000006000600060000000000000000000040
:103E700000000000000080DDC0FFC0CEC0CCC0CC80
:103E8000C0CCC0CCC0CCC0CCC0CC00000000000076
:103E900000000000000000000000006F807F8071C3
:103EA00080618061806180618061806180610000EB
:103EB0000000000000000000000000000000001EE4
:103EC000003F807380618061806180618073003F0A
:103ED000001E0000000000000000000000000000C4
:103EE000006E007F8073806180618061806180737B
:103EF000007F006E00600060006000600000000055
:103F000000000000801D803F8073806180618061BF
:103F100080618073803F801D80018001800180016D
:103F2000000000000000000000000067803F003932
:103F30000030003000300030003000300030000031
:103F40000000000000000000000000000000001E53
:103F5000803F80610060007F803F80018061007F42
:103F6000001E000000000000000000000008001813
:103F70000018007F007F00180018001800180018B3
:103F80000018801F800F00000000000000000000EB
:103F900000000000000080618061806180618061BC
:103FA000806180618063807F803D000000000000B0
:103FB00000000000000000000000C060803180317F
:103FC0008031001B001B001B000E000E00060000CD
:103FD000000000000000000000000000000080DD84
:103FE00080DD80DD00550055005500770077002208
:103FF000002200000000000000000000000000009F
:104000000000806100330033001E000C000C001E15
:104010000033003380610000000000000000000059
:104020000000000080618061803100330033001B9C
:10403000001B001B000E000E000E001C007C007018
:1040400000000000000000000000C07FC07F800171
:1040500000030006000C00180030C07FC07F000085
:10406000000000008003800700060006000600062E
:104070000006000E001C001C000E000600060006D4
:104080000006000680078003000600060006000602
:1040900000060006000600060006000600060006F0
:1040A0000006000600060006000600060038003C78
:1040B000000C000C000C000C000C000E00070007A8
:1040C000000E000C000C000C000C000C003C003832
:1040D0000000000000000000000000000000803828
:1040E000807F00470000000000000000000000008A
:1040F00000000000000000000000000001020304B6
:0C4100000607080900000000010203048B
:04410C003101000875
:044110000D01000895
:104114000B120000983300080024F4001000000083
:044124000100000096
:0400000508000E8160
:00000001FF
